:020000040000FA
:06000000A0EF1BF012004E
:0600080004EF08F01200F5
:060018000CEF08F01200DD
:06100000A0EF1BF012003E
:06100800AFEF18F012002A
:06101800B1EF18F0120018
:06102A000200B0370000D7
:10103000EA00000002000000AA370000E200000001
:0410400006000000A6
:0C1044005EEC0DF0FB0EDBCFF3FFDB06D3
:10105000F35000090AE0ACEC0DF0FA0E17EC0EF0BC
:10106000F3E1151CF1E1010E01D0000E8DEF0DF042
:101070005EEC0DF03B0EE12402E3E168E652E16E26
:10108000010EDB6A020EDB6AF90EDBCFF6FFFA0E09
:10109000DBCFF7FFFB0EDBCFF8FF0800F550DF6E6C
:1010A000DF5002E1B1EF0CF0250EDF5C02E0A4EFAF
:1010B0000CF0030EDB6A040EDB6A050EDB6A060E1B
:1010C000DB6A070EDB6AC6EC0CF02D0EDF5C0CE071
:1010D0002B0EDF5C09E0200EDF5C06E0230EDF5CF8
:1010E00003E0300EDF5C1AE1DF50300A14E0130A2F
:1010F0000FE0030A0AE00B0A05E0060AE4E1030E2A
:10110000DB80E1D7030EDB82DED7030EDB84DBD787
:10111000030EDB86D8D7030EDB88D5D72A0EDF5C1B
:101120001BE1C2EC0CF010EC0DF010E0030EDB80C4
:1011300006680768130EDBCF0BF0140EDBCF0CF044
:1011400000EC1BF0040E04C0DBFF03D0130EF9EC1F
:101150000CF0C6EC0CF00BD0090EDB6A67EC0DF05E
:1011600003E0DBEC0DF0FAD7090EF9EC0CF0030EFE
:10117000DBB0DB982E0EDF5C1BE1C6EC0CF02A0E18
:10118000DF5C0BE1C2EC0CF010EC0DF003E1130E90
:101190004BEC0DF0C6EC0CF00BD0090EDB6A67ECE3
:1011A0000DF003E0DBEC0DF0FAD7090E4BEC0DF07F
:1011B000680EDF5C07E1C6EC0CF0680EDF5C1DE139
:1011C000030E18D0740EDF5C17E07A0EDF5C14E0BB
:1011D000480EDF5C06E0540EDF5C03E05A0EDF5C75
:1011E00002E1020E07D06C0EDF5C03E06A0EDF5CEA
:1011F00004E1010E9EEC0DF0C9DBDF506E0A01E147
:101200007FD31E0A01E192D1200A01E18FD13F0A6A
:1012100001E149D11A0A01E146D10D0A01E143D1A8
:10122000200A01E140D13A0A01E13DD1200A01E161
:101230003AD1260A01E135D10D0A01E132D11A0A6B
:1012400001E1D9D0200A4AE0300A1FE0460A0EE048
:10125000250A01E083D3D950F90FE96EFF0EDA2099
:10126000EA6E010EEE5E000EEE5AEE5AACEC0DF098
:10127000250EE66E95DB03E1151C01E169D3A8ECB0
:101280000DF001E26BD3DB2A69D3080EDB6A040E92
:10129000DB50010806E2040EDB0470EC0DF0DB50BD
:1012A0008BDB080EDB5009E0030EDB50010B05E180
:1012B00072DB01E04DD3080EDB6A64DBEFCFDFFFAA
:1012C00020EC0EF003E1151C01E142D3A8EC0DF077
:1012D00001E3DB2A60DB01E141D33AD3070EDB50A7
:1012E00002080FE1ECEC0DF0030EB3EC0DF00E0E66
:1012F000EECFDBFF0F0EEECFDBFF100EEECFDBFFEE
:1013000020D0F70EDBCF17F0F80EDBCF18F0020E6F
:10131000175E000E185AF70E17C0DBFFF80E18C044
:10132000DBFF17C0E9FF18C0EAFFA3EC0DF0166A57
:101330000E0E14C0DBFF0F0E15C0DBFF100E16C023
:10134000DBFF0E0EDBCFE6FF0F0EDBCFE6FF100E4E
:10135000DBCFE6FFE3EC19F0E552E552E552130E60
:1013600005C0DBFF140E06C0DBFF060EDB5005E0F8
:10137000130EE7EC0DF001E26ADB0BEC0EF002E27B
:10138000130E37DBCEEC0DF006E0040EE7EC0DF0AB
:1013900002E2050E2EDB030EDBB005D0FCDA01E025
:1013A000D7D2080EDB6A090EDB6A0E0EDBCFF6FF22
:1013B0000F0EDBCFF7FF100EDBCFF8FF0800F55064
:1013C000DF6EDF5014E011EC0EF011E220EC0EF0B5
:1013D00003E1151C01E1BCD2BBDB01E3DB2A090EF2
:1013E000DB2AD9500E0FE96E000ECBDBE7D7D3DA3C
:1013F00001E1B4D2ADD2C6DA110EEECFDBFF120E90
:10140000EDCFDBFF110EDBCFE6FF120EDBCFE6FFE9
:10141000D5EC19F0E552E552130EF3CFDBFF140EB5
:10142000F4CFDBFF060EDB5004E0130ED0DB01E24D
:101430000EDB0BEC0EF002E2130EDBDAAFDB05E0A5
:10144000040EC5DB02E2050ED4DA030EDBB005D0D4
:10145000A2DA01E07DD2080EDB6A090EDB6A110E0A
:10146000DBCFE9FF120EDBCFEAFFEFCFDFFFDF506C
:1014700014E0D7DB12E2E4DB03E1151C01E168D2E2
:1014800067DB01E3DB2A090EDB2A110EDB2ADBCF47
:10149000E9FF120EE8E3DB2AE6D77DDA01E15ED24E
:1014A00057D2030EDB8E070EDB0410E195DB040E32
:1014B0005ADB0A0EEECFDBFF0B0EEECFDBFF0C0E7E
:1014C000EECFDBFF0D0EEECFDBFF6CD0070EDB5057
:1014D00003082CE1030EDBAE0DD0B2DA020E76DA91
:1014E000EFCF14F0156A166A176A14AE39D0156872
:1014F000166835D0F70EDBCF15F0F80EDBCF16F0FF
:10150000020E155E000E165AF70E15C0DBFFF80E20
:1015100016C0DBFF15C0E9FF16C0EAFFEFCF14F0DD
:101520000A0E14C0DBFF0B0EDB6A38D0070EDB504F
:10153000020809E1030EDBAE04D059DB16AE10D071
:101540000ED055DB0DD0030EDBAE12D079DA020ED1
:101550003DDAF9DA166A176A15AE02D0166817680E
:10156000E2DA0C0E16C0DBFF0D0E17C0DBFF1AD03F
:10157000F70EDBCF16F0F80EDBCF17F0020E165E7B
:10158000000E175AF70E16C0DBFFF80E17C0DBFF70
:1015900016C0E9FF17C0EAFFD6DAC5DA0C0EDB6A1F
:1015A0000D0EDB6A060EDB5005E1010EF36E050E33
:1015B000F3CFDBFF150EDB6A160EDB6AD950370F4F
:1015C000146E000EDA20156E390E14C0DBFF3A0ED1
:1015D00015C0DBFF380EDB6A080EDB6A0A0EAEDAD6
:1015E000DF50780A12E0200A10E0280A0CE0200AF6
:1015F0000AE03F0A06E00D0A02E0200A08E1020EB6
:1016000005D0080E03D0080EDF26100E97DA030E61
:10161000DBBE02D0DB92DB94DB50800B24E08ADA65
:10162000D890030EEB50000A08E6000EEE5C000EA8
:10163000EE58000EEE58000EEE5815E213DA096867
:101640000A680B680C6896EC1AF00A0E00C0DBFF03
:101650000B0E01C0DBFF0C0E02C0DBFF0D0E03C042
:10166000DBFF2D0E08D0030EDBA202D02B0E03D021
:10167000DBA408D0200EF36E170EF3CFDBFF150EA0
:10168000DB2A02D0170EDB6A050EDB5003E1B7D967
:1016900001E189D0940E146E370E156E000E166E91
:1016A000070EDBCF17F0186A196A1A6A17C009F01B
:1016B00018C00AF019C00BF01AC00CF0D3D92DECE9
:1016C0001BF014500024F36E15500120F46E1650D8
:1016D0000220F86EF4CFF7FFF3CFF6FF0800090EF3
:1016E000F5CFDBFF580EDF5C0FE1610EF36E090EE4
:1016F0007BD90AE3200E146E090EDBCFE7FF1450EE
:10170000E75E090EE7CFDBFF070EDBCF14F0156AAB
:10171000166A176A0FDA14C009F015C00AF016C06D
:101720000BF017C00CF0EECF04F0EECF05F0EECFCB
:1017300006F0EFCF07F02DEC1BF007C0EDFF06C061
:10174000EDFF05C0EDFF04C0EFFF390EDBCFE9FF71
:10175000DB063A0EDBCFEAFF01E2DB06090EDBCF48
:10176000EFFF150EDB2A4BD995E1030EDBA61DD04A
:101770006F0EDF5C06E1C1D918E3150EDB285BDADA
:1017800014D0780EDF5C09E0580EDF5C06E0620ED4
:10179000DF5C03E0420EDF5C08E1020EF36E160E22
:1017A000F3CFDBFF02D0150EDB6A030EDB50100B0C
:1017B0000EE0040EDBCF14F0050EDB50D88014547D
:1017C00006E2060EDB5003E1040EDB5034DA95D955
:1017D0000AE2050EDBCFE7FF150EDB50E75E050ED4
:1017E000E7CFDBFF02D0050EDB6A040EDBCF14F07F
:1017F000160E45D9D880145414E2160EDBCFE6FF3E
:10180000150EDBCFE6FF040EDBCFE6FF050EDB5047
:10181000E552E75CE552D880E754E552D880E754BA
:101820005FD9030EDB50010B0BE1080EDB5008E023
:10183000B2D801E08DD0080EDB50BED8080EDB6AAE
:10184000170EDB5007E088D9170EF1D903E1151CFC
:1018500001E17ED0160EDB5016E07ED9300EE66E2A
:101860009FD802E1151C74E077D9DFCFE6FF54EC76
:101870001AF0E552E552E552F4CF15F00001F31CE1
:1018800002E1151C65E0050EDBCF14F0160EDB50EF
:10189000D880145409E2050EDBCFE7FF160EDB50AB
:1018A000E75E050EE7CFDBFF300EE66E050ECBD907
:1018B0004FE1390EDB2ADBCFE9FF3A0E01E3DB2AE9
:1018C000DBCFEAFF090EEFCFDBFFDB500EE044D9A0
:1018D000090EADD902E1151C3BE0390EDB2ADBCF46
:1018E000E9FF3A0EEDE3DB2AEBD755D831E1160ECE
:1018F000DBCFE6FF080EC3D8E552E7245DD82ED033
:10190000070EDB50030A1CE0010A14E0030A07E09B
:101910007BD9DBCFEEFF020EDBCFEDFF1FD0F5D87A
:10192000196A17AE02D0186819682CD8BCD819C02B
:10193000EEFF14D0EAD817BE186824D8B4D80ED059
:1019400063D9DBCFEFFF0AD07BD905E1151C03E19A
:10195000F368F46810D0FCD801E3DB2A79D94DEFA5
:1019600008F0010EDBCF14F0020EDBCF15F014C02F
:10197000F3FF15C0F4FF3B0EE15C02E2E16AE552C1
:10198000E16ECBD029D9020EB3EF0DF061D908007A
:10199000F550DF6E1200200EE66E080E23EF0EF0FB
:1019A00054EC1AF0E552E552E552F3CF14F0F4CFBF
:1019B00015F00001F31C1200146E156AD950010FC6
:1019C0004DD91450EE261550ED221200185E000E6F
:1019D000195AF70E18C0DBFFF80E19C0DBFF18C04C
:1019E000E9FF19C0EAFF1200DBCFF4FFF350F45C0B
:1019F0001200DB50E76E040EE7CFDBFF12000A0E89
:101A0000DBCF14F00B0EDBCF15F00C0EDBCF16F096
:101A10000D0EDBCF17F01450151016101710120012
:101A2000130EEECFDBFF140EEDCFDBFF130EDBCF7B
:101A300014F0140EDBCF15F00001800E1514120007
:101A4000F70EDBCF18F0F80EDBCF19F01200050E01
:101A5000DB50E66ED950130F01D9E552E750EE6E18
:101A6000ED6A12000A0EDBCF04F00B0EDBCF05F09F
:101A70000C0EDBCF06F00D0EDBCF07F01200DBCF34
:101A8000E6FF150EDBCFE6FF050EDB50E552E7243F
:101A9000E552E7241200DB50CED8010EF36E060E9D
:101AA000F3CFDBFF1200EE50EFCFEAFFE96E16C076
:101AB000EEFF17C0EEFF18C0EEFF1200D9CFE6FF11
:101AC000DACFE6FFE1CFD9FFE2CFDAFF1200DFCFB6
:101AD000E6FFE66A7EEC1BF0E552E552F350120099
:101AE000E76E080EE7CFDBFF1200EECF14F0EECF6B
:101AF00015F0EFCF16F0176A1200050EDBCF14F0C9
:101B0000150EDB50D88014541200010EDBCF16F0F6
:101B1000020EDBCF17F0186A1200E552E5CFDAFFAC
:101B2000E7CFD9FF12000A0E14C0DBFF0B0E15C061
:101B3000DBFF1200D9500A0F2EEF0EF0F36E070EE6
:101B4000F3CFDBFF1200EECF14F0EFCF15F0120051
:101B5000010EDB2A020E1200FC0EDBCFE6FFFD0EAB
:101B6000DBCFE6FF1200145E000E155AF70E14C00C
:101B7000DBFFF80E15C0DBFF14C0E9FF15C0EAFF5C
:101B80001200DA20EA6EEF2AEECFF6FF000EEF2207
:101B9000EECFF7FFEF22EECFF8FF1200040EDBCFFF
:101BA000E6FF130EDB50E552E75C9ADFDB5004DF03
:101BB000060EDB501200090EDB500A0DF350DF2435
:101BC000D00FE76E090EE7CFDBFFC6EF0CF0DB505E
:101BD000F36E050EF4EF0CF0F70EDBCF14F0F80EF9
:101BE000DBCF15F01200DFCFE6FFD0EF0CF028DFDF
:101BF000030EECDE75EF0DF022EC08F0E552E55235
:101C0000E552E55200091200BDDEEE50EFCFEAFFCB
:101C1000E96E010E1200130EDB50F36E040EF4EFAA
:101C20000CF0040EDB50F36E090EF4EF0CF0DBCF7A
:101C3000E6FFD0EF0CF0E76E050EE7CFDBFF1200FA
:101C40008BDFF3EF0DF0DBCFE6FF86DFFCEF0DF06F
:101C5000D950F90FE96EFF0EC1EF0DF0E96E000EDD
:061C6000DA20EA6E12001A
:0A1C660044EC13F0430E146E310E2F
:101C7000E1EC12F06A6A686A9F0E6B6EFB0E696E89
:101C80006D8C6D9C6E6A28EC13F0DF6ADF50146E69
:101C9000156A040E145C000E155810E2DF50040D96
:101CA000F3CFE9FFF4CFEAFF000EE926040EEA22A3
:101CB000EE6AEE6AEE6AEE6ADF2AE8D7160E706EFA
:101CC00068A604D0030EEEEC12F0FAD70001B66B52
:101CD000BB6BBC6BBD6B6D98040EAE6F040EAF6F2B
:101CE000A46BA36B47EF13F044EC13F00001A35176
:101CF00010E1210E146E310EE1EC12F06D6A696A8A
:101D00006DB602D06D86FCD70001010EA36F140ED4
:101D10006F6EA3050EE1160E146E310EE1EC12F09B
:101D20006DBA07D0686A696A698069880001020E25
:101D3000A36F6850040B09E06950040B06E0000E25
:101D4000146E310EE1EC12F07AD86DB259D06850B1
:101D5000010B11E06950010B0EE085DF0001040E5C
:101D6000A36F0401100E026F040E036F080E016FC3
:101D7000006B8C0E00136850100B09E06950100BBB
:101D800006E0F30E146E300EE1EC12F04ED86850FF
:101D9000400B08E06950400B05E0D5EC18F0060E4A
:101DA000EEEC12F06850200B09E06950200B06E0C1
:101DB000E30E146E300EE1EC12F024D86850020BE2
:101DC0000BE06950020B08E0D30E146E300EE1EC0C
:101DD00012F0D6EC18F06A6A040E0001A35D10E35D
:101DE00069A60ED0DF6A040EDF5C0AE268A608D09E
:101DF0006CCFC3F0030EEEEC12F02BD8DF2AF3D732
:101E000047EF13F070A00ED015EC13F0EF508008E0
:101E100008E1EEDBEF50840804E115EC13F08C0EC2
:101E2000EF6E7090050EEEEF12F06984040ED6DBB3
:101E30006D82C30E146E300EC4DBD3EF18F06D92BA
:101E4000D4EC18F0699468A403D0020EC7DBFBD76A
:101E50001200FD0E0001C31518E17E0EC315E84007
:101E60007F0B040DF3CFA6F0F4CFA7F0000EA6274A
:101E7000040EA723A6C0A8F0A7C0A9F097EC13F002
:101E800002E14BEF0FF05CEF0FF0FD0EC3150408FD
:101E900001E11AD81200ACDBEF50800B02E0A8DBA6
:101EA000EF6A0001B26BB36BB76BB86BB66B95D8CA
:101EB000D7EC18F00CEF11F0020E0001B35D02E157
:101EC00096EF11F08FEF0FF0DFDB92DBEF50400B5E
:101ED00001E0010EDF6E080E0001A35D09E112C4EE
:101EE0006EFF6E50000802E2100E01D0040EA36FC8
:101EF000B30513E189EC13F0C7D9020E0001B25DFE
:101F000003E176DB840E07D0DF5003E171DBC80EFE
:101F100002D06EDB880EEF6E01D001D8B8D384EC0E
:101F200013F0030EE126020E0001B35D2CE16D50AB
:101F3000100B29E07ADBEE52EF50146E156A080E92
:101F4000141821E115501FE197EC13F01CE1CBDBD5
:101F5000EF50800B18E1C7DBCBDBDF6ADF50146E7C
:101F6000156A080E145C000E155822E2DF5091DB52
:101F7000DF50EA6A100FE96E040EEA22E552E750DC
:101F8000EF6EDF2AEBD7B36BB9DBEF6A000EAE1949
:101F9000146EAFC015F0010E14C0DBFF020EAFC00F
:101FA000DBFF010EDBCFE9FF020EDBCFEAFFEF6ABA
:101FB0000001BBAF0CD0BE51BF1107E005D0BFC0C0
:101FC000FAFF0001BE51F96EFADF0001BB9F030E5C
:101FD000E15C02E2E16AE55214D304011051600BA6
:101FE000E842E842E842E842E842000901E0120023
:101FF00011510C0A43E00B0A3FE00C0A31E0010AE0
:1020000022E00B0A1EE0020A1CE0030A18E0080A9C
:1020100010E0010A0CE00F0A08E0030A01E01200D8
:102020000001B68F080EA36F12009CEF10F0EFEFC7
:1020300011F00001A40EB46F000EB56F0CD0D7EFF5
:1020400010F03FEF10F014510001B46FB56BA50E06
:10205000B427000EB523B681010EB76FB68F1200FC
:102060000001B68F04011451EA6AA50FE96E000E53
:10207000EA2212C4EFFF1200D8EF18F0120044DB7E
:10208000050EE1260401120510E110511F0B000995
:102090000CE10001B68F030E0401115D04E10001A3
:1020A000010EC26F02D00001C26B040112513EE169
:1020B00010511F0B02083AE114510F0B000936E0D2
:1020C0000001B68F040EDB6A020EF36E040EDBCF46
:1020D000F4FFF350F45C2AE2E4DA01E0010EAADA3C
:1020E000030E115D03E18FDA840E1CD014510F0B27
:1020F000156A700F146E0F0E1522020E14C0DBFF4E
:10210000030E15C0DBFF020EDBCFE9FF030EDBCFB2
:10211000EAFFEE90ED5214AF03D075DA400E02D014
:1021200072DAC80EEF6E040EDB2ACED7050EE15C24
:1021300002E2E16AE55265D2800E0401105D36E1EB
:102140000001C00EB66F04011351030A1EE0010A1C
:1021500009E0030A29E100012E0EB46F320EB56FBB
:10216000120E1FD0B5DAD00EF626320EA2DA020E0B
:102170000001F76AB425F66EB551F7220900F5CFD4
:10218000B7F00A00F5CFB8F01200A2DAD20EF626A8
:10219000320E8FDAB4C0F6FFB5C0F7FF0800F55075
:1021A0000001B76FB86B12000001B66B120025DAA0
:1021B0000401186B196B10511F0B020A11E0030A7E
:1021C0000CE0010A19E10001B68F04011881000139
:1021D000C20512E1040118830FD00001B68F0CD0A4
:1021E0000001B68F5EDA01E0010E24DA0CDAEF505E
:1021F000040B02E0010E186F0001B6AF07D0180EF5
:10220000B46F040EB56FB681020EB76F020EE15CBB
:1022100002E2E16AE552F5D16D980001B6BF07D040
:10222000BBAF02D09FDA28D069DA840E26D0BBBFBC
:102230002AD0040110AF23D00001B7510401165D6C
:102240000001B8510401175904E216C4B7F017C4CD
:10225000B8F01AD80001010EB36FACD9E0D9800EE6
:10226000EF6EE3D9EE52080EEF6EDFD941DADDD919
:10227000800EEF6E4EDABCD9C80EEF6E1200000170
:1022800071DAC80EEF6E1200B8D90001080EB75D02
:10229000000EB8590DE2B7C0DEFFB8C0DDFFB25185
:1022A00002E1010E03D0B20506E1020EB26F03D0C7
:1022B000080EDE6EDD6A9CD9EF929AD9EF9098D91C
:1022C000010EDB50EF1294D9EE52DFCFEFFF000E7C
:1022D000DB50B75F010EDB50B85B180EC06F040E09
:1022E000C16FB6B10FD0FBD91BE0B4C0F6FFB5C0CB
:1022F000F7FFB42B000EB5230800F550B2D9F3E276
:10230000DB06F1D7ECD90CE0B4C0E9FFB5C0EAFFB9
:10231000B42B000EB523EF50A4D9F4E2DB06F2D7BC
:10232000020EE15C02E2E16AE5526BD166D97DD929
:10233000EE52EFCFDFFFDFCF14F014500001BC5D91
:10234000000EBD5903E2BCC0DFFF09D0DF50146EA0
:10235000156AE850BC5DBC6F1550BD59BD6F010ECC
:10236000DB6ADF50F36E010EDBCFF4FFF350F45C59
:1023700010E2010EDB508DD9B9C0E9FFBAC0EAFF07
:10238000B92B000EBA23E552E750EF6E010EDB2A9F
:10239000E8D7000ED880BC55000EBD550CE2D6D94A
:1023A00044D9EF50400B03E19ED9C80E02D09BD90F
:1023B000880EEF6E0ED097D99BD9BE51BF1107E0A2
:1023C00005D0BFC0FAFF0001BE51F96EFADF00016F
:1023D000BB9F020EE15C02E2E16AE55212D100010C
:1023E000B68F36D9010EE66EE66AE66AA50EE66E8F
:1023F000000EA4D912C4A4F00401125104E100019A
:10240000100EA36F12000001200EA36FD9EF18F079
:10241000F4D8000EDE6E040EDD6EFD0EDB50040DF2
:10242000F3CF16F0FE0EDB50080DF3501624146E99
:10243000156A020E0F0B05E0D89015321432E8062B
:10244000FBE1D89014361536D8901436153681D95C
:102450001450EE261550ED22D6D8EF9EFD0EDB501F
:1024600002E15BD901D05ED9EA22DECFEEFFDDCFFB
:10247000EDFFC9D8EF8C020EE15C02E2E16AE552A1
:10248000C0D0BBD8FE0EDB50156A700F146E0F0E55
:10249000152214C0DEFF15C0DDFFFD0EDB50E66E19
:1024A000B2D8E552E750EE6EED6AFD0EDBA402D025
:1024B000E66A07D9FD0EDBA203D0010EE66E01D954
:1024C000020EE15C02E2E16AE5529BD096D8FE0E74
:1024D000DB5004E113D9840EEF6E19D0FD0EDBCF73
:1024E000E6FFFE0EDB50E824E552E724040DF3CFAF
:1024F00014F0F4CF15F0000E1426040E152214C0AB
:10250000DEFF15C0DDFF840E7ED8E850EF12020E0C
:10251000E15C02E2E16AE55274D06FD8FD0EDB5057
:1025200002E000D901D0F9D8EA22EECFDEFFEDCFEC
:10253000DDFF69D8EF7C67D820D9FB0EDBCFEEFF3B
:10254000FC0EDBCFEDFF5FD8EE52FA0EDBCFEFFFD4
:10255000400E59D8E850EF16880E55D8E850EF12C3
:10256000FD0EDB5002E0DED801D0D7D8EA22DECF64
:1025700014F0DDCF15F014C0F3FF15C0F4FF020E08
:10258000E15C02E2E16AE5523CD0BED8010EF36E96
:10259000FC0EDB5004E0D890F336E806FCE1F31CB7
:1025A000146EFD0EDBCFE9FFFE0EDBCFEAFF145009
:1025B000EF16D4D098D8EE52080EEF6E94D8BDEF37
:1025C00013F0156E166A14C0E6FFE66E16C0E6FF3D
:1025D00008EC1AF0E552E552E5521200E66E680E7C
:1025E000E66E0F0EE66ED1DFE552E552E5521200BF
:1025F000AEC0E9FFAFC0EAFF120086D8020EE126A6
:102600001200E16EABD0DECFE9FFDDCFEAFF1200B2
:10261000FE0EEA6ADB34FE0BEA36E96E1200100E9B
:10262000EE6E040EED6E73EF13F0A6C0E9FFA7C0C7
:10263000EAFF1200166E14510F0BE8241624040D45
:10264000F4CF15F086D8F350EE261550ED22120087
:10265000000EE66EE66AE66A710EE66E0F0E9EEFFB
:1026600013F0E66EC0C0E9FFC1C0EAFFC02B000E48
:10267000C123E552E750EF6EDF06010E1200180E7F
:10268000EE6E040EED6E12003FD8E6521200E552D7
:1026900065D0EA6A180FE96E040EEA22EF50E66E82
:1026A0001200000EDE6E040EDD6E04011451800B6C
:1026B0001200F7220900F5CFB4F00A00F5CFB5F00B
:1026C0001200FE0EDBCFE6FFA3DEE552E55212005C
:1026D0001251F66EF76AD890F636F736120039D8EE
:1026E000EE50ED101200A8C0E9FFA9C0EAFF1200E9
:1026F00044D8100EEE6E040EED6E12005BDF8FDF1D
:102700008C0EEF6EF8EF12F0D9CFE6FFE1CFD9FFD4
:1027100012006EDF32D83FEF13F07ADFAA0EE926FF
:10272000000E120075DFAE0EE926000E12007DDFEE
:10273000EF503C0BE842E8420D081200E66EBBEC9D
:1027400019F0146E050EE15E1450120033DF3FEFF6
:1027500013F0D9CFE9FFDACFEAFF1200E552E7CF55
:10276000D9FF1200020EB36F43DFEE52EF6A40DF73
:10277000C80EEF6EEBDF73EF13F0020EE926000ECA
:04278000EA22120037
:0C278400940E146E300E156E166A14C010
:10279000E6FFE66E16C0E6FF08EC1AF0E552E552D9
:1027A000E552F00E8C1695169388938A8150100B83
:1027B00001E0010E0001606F8150200B01E0010E6D
:1027C000616F58EC17F09280010EC26E3C0EC06E25
:1027D000C08E37D80001646B970ED56E12002CDACC
:1027E000200E0001A35D2CE36D50020B01E01200EE
:1027F0004CD80001640524E1F2A422D0F294480EE2
:10280000D76EE50ED66E6BEC17F0000919E00001EB
:102810006551E96EEA6AD890E936EA36670EE9262C
:10282000000EEA22CCC0EEFFCDC0EDFF1E0E665DAD
:1028300001E2662B1D0E655D02E1656B1200652BE2
:1028400012000001656B666B1200D9CFE6FFE1CF85
:10285000D9FF020EE126C282C2B2FED7C350DF6E9C
:10286000010EC4CFDBFFDECF14F0DDCF15F014C0B6
:10287000F3FF15C0F4FF020EE15C02E2E16AE552EB
:10288000E16EE552E7CFD9FF1200D9CFE6FFE1CFE5
:10289000D9FF030EE1260001E251E31102E1000E2F
:1028A00008D0E2C0E9FFE3C0EAFFEF50800B01E08F
:1028B000010E000901E0B6D10001626B60C420F492
:1028C00061C421F404016051FF0A01E15DD1C80A2D
:1028D00001E119D1010A01E1DDD0030A01E1D2D001
:1028E000010A01E199D0070A01E17AD0010A2EE03C
:1028F000030A0CE0310A01E059D10401226B040102
:10290000010E236F0001040E626F52D10001010E0F
:10291000626F0401615103E18C948C9616D004011E
:10292000610503E18C948C8610D0020E0401615D78
:1029300003E18C848C9609D0030E0401615D03E1F0
:102940008C848C8602D00001626B32D1030E0401AC
:10295000615D21E104016251E8B08C84E8A08C94AF
:102960000001010E626F8C50040B01E0010EE66E57
:10297000E66A880E146E300E156E166A14C0E6FFF5
:1029800015C0E6FF16C0E6FF08EC1AF0176E050E3C
:10299000E15E175024D0040E0401615D20E10401C2
:1029A0006251E8B08C86E8A08C960001010E626F3F
:1029B0008C50080B01E0010EE66EE66A7C0E146E88
:1029C000300E156E166A14C0E6FF15C0E6FF16C07D
:1029D000E6FF08EC1AF0176E050EE15E1750E8D01E
:1029E0000001646B2EDF0001010E626F0001645173
:1029F000E66EE66A6E0E146E300E156E166A14C020
:102A0000E6FF15C0E6FF16C0E6FF08EC1AF0176EE9
:102A1000050EE15E1750CCD06BEC17F0000931E0E9
:102A2000CCC021F4CDC022F40001030E626F00017E
:102A3000CC51E66EE66A620E146E300E156E166AA2
:102A400014C0E6FF15C0E6FF16C0E6FF08EC1AF05A
:102A5000176E050EE15E17500001CD51E66EE66A75
:102A6000560E146E300E156E166A14C0E6FF15C0B1
:102A7000E6FF16C0E6FF08EC1AF0176E050EE15EE1
:102A8000175096D00001010E646FDBDE0001010ECD
:102A9000626F8ED000016651E824020F0001626F60
:102AA00000016651E8240401216F66C0DFFFDF509A
:102AB000000827E20001655104E100011D0E656F69
:102AC00002D00001650700016551E96EEA6AD890FD
:102AD000E936EA36670EE926000EEA22EECF14F058
:102AE000EFCF15F0EA6ADF34FE0BEA36E96E200E0E
:102AF000E926040EEA2214C0EEFF15C0EDFFDF0642
:102B0000D6D79FDE55D09280010EC26E3C0EC06EAD
:102B1000C08E9BDEDE52F3CFDEFFF4CFDDFFDD5251
:102B2000010EDBCF21F4020EDBCF22F4010EDBCF4E
:102B3000E6FFE66A4A0E146E300E156E166A14C071
:102B4000E6FF15C0E6FF16C0E6FF08EC1AF0176EA8
:102B5000050EE15E1750020EDBCFE6FFE66A3E0E81
:102B6000146E300E156E166A14C0E6FF15C0E6FF2F
:102B700016C0E6FF08EC1AF0176E050EE15E17505E
:102B80000001030E626F14D0FF00380E146E300E79
:102B9000156E166A14C0E6FF15C0E6FF16C0E6FF04
:102BA00008EC1AF0E552E552E55202D0000000D0E0
:102BB0000001625124E00001E451E51102E1000E40
:102BC00008D0E4C0E9FFE5C0EAFFEF50800B01E068
:102BD000010E000914E162C0E6FF200EE66E040E4D
:102BE000E66E010EE66E010EE66E8DEC12F0146ECE
:102BF000050EE15E1450F3CFE4F0F4CFE5F0400EA3
:102C0000E66E600EE66E040EE66EE66A010EE66E95
:102C10008DEC12F0146E050EE15E1450F3CFE2F06D
:102C2000F4CFE3F0030EE15C02E2E16AE552E16E0B
:102C3000E552E7CFD9FF12000001E651E71104E1A8
:102C4000100EE66F270EE76FE607000EE75B6DA23A
:102C500008D0E651E71130E18C708C50010B13E184
:102C600028D00001A35102E18C9023D0A30502E1FA
:102C70008C8009D0020EA35D02E18C801AD0040E74
:102C8000A35D03E18C908C821200100EA35D06E11F
:102C90000001E651E71110E18C700BD0200EA35D0E
:102CA0000BE10001E651E71107E18C708C50010B3C
:102CB00002E08C9212008C8212008150100B01E015
:102CC000010E0001605D07E08150100B01E0010E74
:102CD000606F81A8010C000C8150200B01E0010EF7
:102CE0000001615D07E08150200B01E0010E616F82
:102CF00081AA010C000CD9CFE6FFE1CFD9FFACA22D
:102D0000FED7FE0EDB50AD6EE552E7CFD9FF1200C5
:102D1000AB8E948E948CAC8AAC98B896B06A0C0E3C
:102D2000AF6E1200B0D89EA8FED7FE0EDB50AD6E7F
:102D3000AFD09EBA010C000CA6D8E6529EAAFED7D0
:102D4000AE50DF6E9E9ADF50E552A2D09CD8E6527C
:102D5000FE0EDB50DF6E640E8ED804E0640E8BD85E
:102D6000300F9AD8640E87D8640DF350DF5CDF6EA5
:102D70000A0E81D804E00A0E7ED8300F8DD80A0ED4
:102D80007AD80A0DF350DF5CDF6E300EDF2484D872
:102D9000E5527ED078D884D808E082D87DD8FD0E60
:102DA000DB2AFE0EF8E3DB2AF6D772D06CD8030ECE
:102DB000E126DE6ADD6A020EDB6ADECF14F0DDCFCB
:102DC00015F0FB0EDBCF16F0FC0EDBCF17F0165024
:102DD000145C1750155819E2AFDFE76E020EE7CF0B
:102DE000DBFFDFCF14F0DF2A010EDBCF15F001E3AC
:102DF000DB2AFD0EDB501424E96EFE0EDB5015209D
:102E0000EA6E020EDBCFEFFFD8D7FD0EDBCF14F05A
:102E1000FE0EDBCF15F0DE501424E96EDD501520D8
:102E2000EA6EEF6A030EE15C02E2E16AE552E16EEE
:102E30002FD029D8E652FE0EDB50F00BE8380F0BEE
:102E4000DF6EDF50090803E3300EDF2403D0300EBD
:102E5000DF24070F21D8FE0EDB500F0BDF6EDF5093
:102E6000090803E3300EDF2403D0300EDF24070F00
:102E700013D8E5520DD0146E0C6EDFCF07F0BCEC0A
:102E80001BF007501200D9CFE6FFE1CFD9FF1200A7
:102E9000E552E7CFD9FF1200E66E44DFE55212009B
:102EA000FD0EDBCFE9FFFE0EDBCFEAFFEF50120095
:102EB0008A849394E66A030EE66E020EE66ECEEC0A
:102EC0001AF0E552E552E5520001870ECC6F0C0E68
:102ED000CD6F78EF17F08A9451EC1BF00001CD6FA5
:102EE00051EC1BF00001CC6F8A84CCA5000C010CC6
:102EF000D9CFE6FFE1CFD9FF040EE126CCC014F014
:102F0000CDC015F0030ED89015321432E804FBE161
:102F100089D8D9CFE9FFDACFEAFFEE52EF50100B94
:102F200008E1010EDB9ADB9CDB9E00012B0ECE6FCD
:102F300010D0010EDB8ADB8CDB8E00012D0ECE6FF4
:102F400076D8FF0E141A151A6DD8DF2A010E01E388
:102F5000DB2A6DD80A0E1502F3CF15F01402F3CF59
:102F600014F0F4501526040ED89015321432E804EB
:102F7000FBE158D8040EF36E020EF3CFDBFFDB50FB
:102F8000000830E254D80A0E0B6E0C6A14C006F02A
:102F900015C007F068EC1BF002C014F003C015F078
:102FA0000F0E02143009E66E020EDB50EA6ACE0FF5
:102FB000E96E000EEA22E552E750EF6ED9CFE9FF45
:102FC000DACFEAFF0A0E0B6E0C6AEECF06F0EDCFF9
:102FD00007F068EC1BF006C0EEFF07C0EDFF020E25
:102FE000DB06CDD7300E0001CF5D07E1200ECF6F9D
:102FF000300ED05D02E1200ED06FD2C0D3F02E0E85
:10300000D26FF80ED46F430ED56F0D0ED66FD76BFF
:10301000040EE15C02E2E16AE552E16EE552E7CFBF
:10302000D9FF120014C0DEFF15C0DDFF1200DECF95
:0830300014F0DDCF15F01200D1
:0830380052657365740050201D
:10304000765B315D2025750D0A005020765B305D82
:103050002025750D0A005420765B315D2025750D05
:103060000A005420765B305D2025750D0A005465FA
:103070006D706D6F64652025640D0A004C45442019
:1030800034202025640D0A004C454420332020259F
:10309000640D0A005573657220496E697469616C2C
:1030A000697A61696F6E730D0A00496E69746961AE
:1030B0006C697A696E672053797374656D0D0A00C7
:1030C0000D0A0053757370656E64696E672E2E2E3F
:1030D0000D0A004572726F722048616E646C6572F1
:1030E0000D0A005374616C6C2048616E646C6572EB
:1030F0000D0A0053757370656E64696E670D0A0082
:1031000057616B696E672066726F6D20737573709F
:10311000656E640D0A0041747461636865640D0A2C
:103120000044657461636865640D0A0053656E73DD
:10313000696E67204255532070726573656E6365D2
:103140000D0A00496E697469616C697A696E67205D
:0D315000555342204465766963650D0A0001
:02315E0060D837
:103160001100D8CFE4FFE0CFE4FFE46E59D8E5507A
:10317000E5CFE0FFE5CFD8FF100005D874EC0EF0E6
:10318000EFEC13F0FBD70F0EC11288EC16F0C00E57
:10319000146E300E38D8AA0E146E300E34D833ECBC
:1031A0000EF0C2EF13F01200120012001200120013
:1031B00012001E0EE66E010EE66E41EC12F0E552B4
:1031C000E552400EE66E600EE66E040EE66EE66AAE
:1031D000010EE66E8DEC12F0146E050EE15E1450D9
:1031E000F3CFE2F0F4CFE3F012006D840001080E9B
:1031F000E86F070EE96FE807000EE95BE851E91197
:10320000FAE16D941200156E166A14C0E6FFE66EC0
:1032100016C0E6FF08EC1AF0E552E552E55212003E
:0E322000DACFE4FFE652E552E5CFDAFF120006
:02322E0012018B
:10323000000200000008D8040C0000000102000198
:1032400009022000010100C0320904000002000050
:10325000000007050102400001070581024000014E
:103260000403090434034D006900630072006F0019
:10327000630068006900700020005400650063006E
:1032800068006E006F006C006F006700790020001E
:1032900049006E0063002E0038034D006900630092
:1032A00072006F0063006800690070002000430036
:1032B0007500730074006F006D002000550053000E
:1032C000420020004400650076006900630065004C
:0832D000403260326432983292
:0832D8002A0EF66E100EF76ECF
:1032E000000EF86E00010900F550DD6F0900F55081
:1032F000DE6F03E1DD6701D03DD00900F550D86FE6
:103300000900F550D96F0900F550DA6F090009007E
:10331000F550E96E0900F550EA6E09000900090050
:10332000F550DB6F0900F550DC6F09000900F6CF9E
:10333000DFF0F7CFE0F0F8CFE1F0D8C0F6FFD9C06A
:10334000F7FFDAC0F8FF0001DB5302E1DC5307E0CE
:103350000900F550EE6EDB07F8E2DC07F9D7DFC0B5
:10336000F6FFE0C0F7FFE1C0F8FF0001DD07000E47
:06337000DE5BBFD7120076
:0A337600FE0EE3CFE9FFFF0EE3CFE8
:10338000EAFFE9CFF3FFEACFF4FFFB0EE35003E1DE
:10339000FC0EE35009E0FB0EE30602E2FC0EE3063E
:1033A000FD0EE350EE6EF1D71200FE0EE3CFE9FF03
:1033B000FF0EE3CFEAFFF36AF46AEE5203E0F34A4A
:1033C000F42AFBD71200FF0EE3CFF8FFE552FF0E01
:1033D000E3CFF7FFE552FF0EE3CFF6FFE552E66AD3
:1033E000E66AE66A0900F55209E0FD0EE32A05E106
:1033F000FE0EE32A02E1FF0EE32AF4D7FD0EE3CF2F
:1034000005F0FE0EE3CF06F0FF0EE3CF07F012004B
:10341000D9CFE6FFDACFE6FFE1CFD9FFE2CFDAFF7F
:10342000E652E652E652E652D950FB0F146EFF0EFA
:10343000DA20156E14C0DEFFDD6EDECFE6FFDDCFD5
:10344000E6FFFB0EDBCFE6FFFC0EDBCFE6FFFD0E5B
:10345000DBCFE6FFEAC0E6FFEBC0E6FF38EC08F0A2
:10346000146E070EE15C02E2E16AE552E16E14506F
:10347000020EF3CFDBFF030EF4CFDBFF020EDBCF38
:1034800014F0030EDBCF15F014C0F3FF15C0F4FFEA
:10349000040EE15C02E2E16AE552E16EE552E5CF3D
:0834A000DAFFE7CFD9FF1200AB
:0834A800D9CFE6FFDACFE6FF01
:1034B000E1CFD9FFE2CFDAFFFB0EDBCF14F0FC0E39
:1034C000DBCF15F00001800E15141AE1FB0EDBCFE7
:1034D000E9FFFC0EDBCFEAFFEECFF3FFEDCFF4FF09
:1034E000EE2A000EEF22F3CFE9FFF4CFEAFFFD0E44
:1034F000DBCFEFFFEF50156AF36E15C0F4FF10D06D
:10350000FB0EDB50FE0806E1FD0EDBCFE6FFAEEC66
:103510001BF005D0FD0EDBCFE6FFD3EC1BF0E55230
:0C352000E552E5CFDAFFE7CFD9FF12003B
:04352C00045009023C
:10353000F3CF00F0F4CF01F00A02F3500126000EA1
:10354000F420026E04500B02F3500226000EF42009
:10355000036E04500C02F350032605500902F35089
:103560000126F4500222000E032205500A02F350F5
:103570000226F450032205500B02F3500326065096
:103580000902F3500226F450032206500A02F350B7
:0C359000032607500902F3500326120026
:04359C00D9CFE6FF9E
:1035A000DACFE6FFE1CFD9FFE2CFDAFF3F0EC71651
:1035B000C66AFD0EDB50C612FB0EDB50C712FC0EB6
:1035C000DB50030A09E0010A04E0020A06E1C78CA5
:1035D00004D0C78CC68801D0C688FD0EDB50050A12
:1035E00003E0010A03E1928A938201D093929380CF
:1035F000949EC68AE552E5CFDAFFE7CFD9FF1200E5
:1036000007C013F006C012F006500B02F4CF05F00D
:10361000F3CF04F007500C02F4CF07F0F3CF06F01D
:103620000B02F3500526F4500622E86A07221250D6
:103630000C02F3500526F4500622E86A07220CAE6D
:1036400026EF1BF01250065E1350075A13AE000C03
:0A3650000B50065E0C50075A000CE8
:06365A00036A026A016A26
:10366000006A200EE76ED890043605360636073617
:1036700000360136023603360950005C0A50015804
:103680000B5002580C50035809E30950005E0A50D1
:10369000015A0B50025A0C50035A042AE72EE4D761
:0236A000120016
:0E36A200D9CFE6FFDACFE6FFE1CFD9FFE2CFC6
:1036B000DAFFE652C950DF6E9E96C96A9EA6FED713
:1036C000C950E552E552E5CFDAFFE7CFD9FF120046
:1036D000036A026A100EE76ED89006360736023685
:1036E00003360B50025C0C50035805E30B50025E8E
:0C36F0000C50035A062AE72EF0D71200F7
:0436FC00F36AF46A0F
:10370000FF0EE124E96EFF0EE220EA6EED6607D0BF
:103710002F0EEF6404D03A0EEF6001D0F32A1200AE
:10372000000EF36E00EE00F0040E01D81200EA6005
:1037300002D0EE6AFCD7F350E9601200EE6AFCD7C3
:1037400013EE00F023EE00F0F86A0F9C6CEC19F019
:0C375000D4EC1BF0BDEC18F0FBD712000D
:04375C00FF0EE35029
:10376000ACBA04D0AF6AAB8EAC8A949CACA2FED744
:08377000AD6EF36EF46A120065
:08377800036A080EE76ED89009
:10378000073603360C50035C02E3036E072AE72E6C
:04379000F7D7120055
:0C37940030313233343536373839616259
:0537A000636465660092
:0237A60012000F
:0237A80012000D
:0637AA0000000000000019
:0237B000FEFF1A
:020000040030CA
:0100000024DB
:010001000EF0
:010002003FBE
:010003001EDE
:010005008179
:010006008178
:010008000FE8
:01000900C036
:01000A000FE6
:01000B00E014
:01000C000FE4
:01000D0040B2
:00000001FF
