:020000040000FA
:06000000FCEF11F01200FC
:0600080004EF08F01200F5
:060018000CEF08F01200DD
:06100000FCEF11F01200EC
:061008007CEF11F0120064
:0610180083EF11F012004D
:06102A0001003224000069
:081030001A0F00000600000089
:08103800BEEC0CF0636A626A71
:101040000F019F0E5D6FFB0E5C6F658C659C5E6B88
:10105000ABEC0CF0DF6ADF50106E116A040E105C0E
:10106000000E115810E2DF50040DF3CFE9FFF4CF6A
:10107000EAFF000EE926040EEA22EE6AEE6AEE6A44
:10108000EE6ADF2AE8D70F01160E4C6F62A604D075
:10109000030E69EC0CF0FAD7DF6A020EDF5C04E2A3
:1010A0000001F36BDF2AF9D765980001040EEB6F9E
:1010B000040EEC6FE16BE06BC1EF0CF0BEEC0CF0DA
:1010C0000001E0510DE1656A0F015C6B65B602D06D
:1010D0006586FCD70001010EE06F0F01140E5F6FF3
:1010E0000001E0050AE165BA08D0626A0F015C6B95
:1010F0005C815C890001020EE06F6250040B05E028
:101100000F015C51040B01E06AD865B24ED0625009
:10111000010B12E00F015C51010B0EE08DDF0001AD
:10112000040EE06F0401100E026F040E036F080E30
:10113000016F006B8C0E00136250100B05E00F0165
:101140005C51100B01E044D86250400B08E00F01E5
:101150005C51400B04E043EC0FF0060EBADB62502A
:10116000200B05E00F015C51200B01E01FD86250FD
:10117000020B07E00F015C51020B03E044EC0FF09F
:10118000636A040E0001E05D10E30F015CA70DD05F
:10119000DF6A040EDF5C09E262A607D064CFF9F0D3
:1011A000030E97DB27D8DF2AF4D7EBD30F014CA12E
:1011B0000CD0BEDBEF50800807E195DBEF508408D0
:1011C00003E1B6DB8C0EEF6E4C91060E69EF0CF06E
:1011D0000F015C85040E7DDB658241EF0FF06592A7
:1011E00042EC0FF00F015C9562A403D0020E71DB9C
:1011F000FBD71200FD0E0001F91518E17E0EF9155E
:10120000E8407F0B040DF3CFE3F0F4CFE4F0000EE1
:10121000E327040EE423E3C0E5F0E4C0E6F005ECC8
:101220000DF002E11CEF09F02DEF09F0FD0EF915AC
:10123000040801E124D8120056DBEF50800B02E0D5
:1012400052DBEF6A0001EF6BF06BF46BF56BF36B45
:1012500095D845EC0FF0DDEF0AF0020E0001F05DCD
:101260000CE12FDA65DBEF50400B03E1AADBC80E7F
:1012700002D0A7DB880EEF6E12006DEF09F07EDB67
:1012800032DBEF50400B01E0010EDF6E080E000173
:10129000E05D0CE112C45EFF0F015E51000803E245
:1012A0000001100E02D00001040EE06FF00513E102
:1012B0001ADB5ADBBCD9020E0001EF5D03E113DB40
:1012C000840E07D0DF5003E10EDBC80E02D00BDB2B
:1012D000880EEF6E01D001D854D388DB030EE126CF
:1012E000020E0001F05D31E16550100B2EE020DBB5
:1012F000EE52EF50106E116A080E101826E11150D0
:1013000024E183DB22E15DDBEF50800B1EE159DB42
:101310005DDBDF6ADF50106E116A080E105C000E94
:10132000115826E2DF50EA6A180FE96E040EEA222D
:10133000EF50E66EDF50EA6A100FE96E040EEA2203
:10134000E552E750EF6EDF2AE5D7F06B6DDBEF6A11
:10135000000EEB19106E010E10C0DBFF020EECC088
:10136000DBFF010EDBCFE9FF020EDBCFEAFFEF6A06
:10137000030EE15C02E2E16AE552BED204011051C3
:10138000600BE842E842E842E842E842000901E036
:10139000120011510C0A43E00B0A3FE00C0A31E045
:1013A000010A22E00B0A1EE0020A1CE0030A18E010
:1013B000080A10E0010A0CE00F0A08E0030A01E045
:1013C00012000001F38F080EE06F12006DEF0AF0BB
:1013D00081EF0BF00001E10EF16F000EF26F0CD007
:1013E000A8EF0AF010EF0AF014510001F16FF26B50
:1013F000E20EF127000EF223F381010EF46FF38F5A
:1014000012000001F38F04011451EA6AE20FE96E41
:10141000000EEA2212C4EFFF120046EF0FF0120096
:10142000E5DA050EE1260401120510E110511F0B4B
:1014300000090CE10001F38F030E0401115D04E1CA
:101440000001010EF86F02D00001F86B0401125187
:101450003EE110511F0B02083AE114510F0B000935
:1014600036E00001F38F040EDB6A020EF36E040E09
:10147000DBCFF4FFF350F45C2AE285DA01E0010EE1
:101480005CDA030E115D03E139DA840E1CD01451CD
:101490000F0B116A4C0F106E0F0E1122020E10C0AE
:1014A000DBFF030E11C0DBFF020EDBCFE9FF030EF3
:1014B000DBCFEAFFEE90ED5214AF03D01FDA400EFF
:1014C00002D01CDAC80EEF6E040EDB2ACED7050E52
:1014D000E15C02E2E16AE5520FD2800E0401105D88
:1014E00036E10001C00EF36F04011351030A1EE040
:1014F000010A09E0030A29E10001B00EF16F210E93
:10150000F26F120E1FD056DA520EF626220E43DA72
:10151000020E0001F76AF125F66EF251F72209007A
:10152000F5CFF4F00A00F5CFF5F0120043DA540ECF
:10153000F626220E30DAF1C0F6FFF2C0F7FF0800FF
:10154000F5500001F46FF56B12000001F36B12000F
:10155000CFD90401186B196B10511F0B020A11E04F
:10156000030A0CE0010A19E10001F38F040118815C
:101570000001F80512E1040118830FD00001F38F78
:101580000CD00001F38FFFD901E0010ED6D9B6D9F6
:10159000EF50040B02E0010E186F0001F3AF07D00B
:1015A000180EF16F040EF26FF381020EF46F020E4B
:1015B000E15C02E2E16AE5529FD165980001F3BF68
:1015C00003D032DA840E31D0040110AF21D00001F3
:1015D000F4510401165D0001F5510401175904E2AC
:1015E00016C4F4F017C4F5F022D80001010EF06F14
:1015F0006CD9800EEF6E9CD9EE52080EEF6E98D922
:10160000E5D996D9800EEF6E6ED9AED96CD90CD0D3
:101610000001020EF06F67D9EE52EF6A64D9C80E6E
:10162000EF6E10DAA1D9CDD9C80EEF6E120060D9D5
:101630000001080EF45D000EF5590DE2F4C0DEFF66
:10164000F5C0DDFFEF5102E1010E03D0EF0506E129
:10165000020EEF6F03D0080EDE6EDD6A44D9EF9202
:1016600042D9EF9040D9010EDB50EF123CD9EE5237
:10167000DFCFEFFF000EDB50F45F010EDB50F55BB8
:10168000180EF66F040EF76FF3B10FD073D913E095
:10169000F1C0F6FFF2C0F7FFF12B000EF2230800B5
:1016A000F55031D9F3E2DB06F1D764D904E094D9DF
:1016B000FCE2DB06FAD7020EE15C02E2E16AE552E7
:1016C0001BD116D97ED9EF50030BE76E010EE7CF81
:1016D000DBFFEE52EFCFDFFFDE500001F427DD50DD
:1016E000F523180EF16F040EF26F44D904E074D99B
:1016F000FCE2DB06FAD7020EE15C02E2E16AE552A7
:10170000FBD00001F38F27D9010EE66EE66AE66A88
:10171000E20EE66E000E80D912C4E1F0040112510F
:1017200004E10001100EE06F12000001200EE06FD6
:1017300047EF0FF0DDD8000EDE6E040EDD6EFD0EFD
:10174000DB50040DF3CF12F0FE0EDB50080DF3500A
:101750001224106E116A020E0F0B05E0D8901132A0
:101760001032E806FBE1D89010361136D8901036CA
:1017700011365FD91050EE261150ED22BFD8EF9EE2
:10178000FD0EDB5002E137D901D03AD9EA22DECF93
:10179000EEFFDDCFEDFFB2D8EF8C020EE15C02E28E
:1017A000E16AE552A9D0A4D8FE0EDB50116A4C0FB5
:1017B000106E0F0E112210C0DEFF11C0DDFFFD0EF6
:1017C000DB50E66E9BD8E552E750EE6EED6AFD0EFB
:1017D000DBA402D0E66AE7D8FD0EDBA203D0010E3F
:1017E000E66EE1D8020EE15C02E2E16AE55284D0E5
:1017F0007FD8FD0EDBCFE6FFFE0EDB50E824E5527E
:10180000E724040DF3CF10F0F4CF11F0000E1026F2
:10181000040E112210C0DEFF11C0DDFF840E6ED851
:10182000E850EF12020EE15C02E2E16AE55264D098
:101830005FD8FD0EDB5002E0E3D801D0DCD8EA220D
:10184000EECFDEFFEDCFDDFF59D8EF7C57D800D9C2
:10185000FB0EDBCFEEFFFC0EDBCFEDFF4FD8EE52E1
:10186000FA0EDBCFEFFF400E49D8E850EF16880E96
:1018700045D8E850EF12FD0EDB5002E0C1D801D090
:10188000BAD8EA22DECF10F0DDCF11F010C0F3FF9E
:1018900011C0F4FF020EE15C02E2E16AE5522CD0D5
:1018A000A5D8010EF36EFC0EDB5004E0D890F336A1
:1018B000E806FCE1F31C106EFD0EDBCFE9FFFE0E27
:1018C000DBCFEAFF1050EF16B9D0BCD87FD8E1EFDC
:1018D0000CF0E66E620EE66E0F0EE66EE1DFE5528C
:1018E000E552E5521200EBC0E9FFECC0EAFF12003E
:1018F0007DD8020EE1261200E16EA0D0DECFE9FF16
:10190000DDCFEAFF1200E66EF6C0E9FFF7C0EAFF9E
:10191000F62B000EF723E552E750EF6EDF06010EBF
:101920001200FE0EEA6ADB34FE0BEA36E96E1200A4
:10193000E3C0E9FFE4C0EAFF1200126E14510F0B7E
:10194000E8241224040DF4CF11F073D8F350EE26DE
:101950001150ED2212000F0EE66EE66AE66A4D0E99
:10196000E66E0F0E0CEF0DF073D8180EEE6E040E2F
:10197000ED6E12005ED8EE50ED10120037D8E65230
:101980001200E5525BD0000EDE6E040EDD6E040127
:101990001451800B1200F7220900F5CFF1F00A0074
:1019A000F5CFF2F01200FE0EDBCFE6FFC3DEE5520C
:1019B000E55212001251F66EF76AD890F636F736F5
:1019C0001200E5C0E9FFE6C0EAFF120041D8100EA0
:1019D000EE6E040EED6E1200F1C0E9FFF2C0EAFFF8
:1019E000F12B000EF223EF5083EF0CF0D9CFE6FF7E
:1019F000E1CFD9FF120095DFE70EE926000E1200B5
:101A000090DFEB0EE926000E120092DFEF503C0B48
:101A1000E842E8420D081200E66EB2EC11F0106EDA
:101A2000050EE15E1050120050DF8C0EEF6E73EF6A
:101A30000CF0D9CFE9FFDACFEAFF1200E552E7CF89
:101A4000D9FF1200BEDFEE52080EEF6EE1EF0CF090
:0A1A5000020EE926000EEA22120041
:061A5A00FC0E8D1696162D
:101A6000F30E8C16951693888150100B01E0010E31
:101A70000401206F8150100B01E0010E216F71EC09
:101A80000FF09280C088C180C098010EC26EBE0E59
:101A9000C16E39D80401246B970ED56E120085D91A
:101AA000200E0001E05D2EE36550020B01E0120004
:101AB00086EC0FF04CD80401240524E1F2A422D0D6
:101AC000F294480ED76EE50ED66E85EC0FF0000945
:101AD00019E004012551E96EEA6AD890E936EA3640
:101AE000270EE926040EEA2204CFEEFF05CFEDFF14
:101AF0001E0E265D01E2262B1D0E255D02E1256BE3
:101B00001200252B12000401256B266B1200D9CF81
:101B1000E6FFE1CFD9FF020EE126C282C2B2FED7B4
:101B2000C350DF6E010EC4CFDBFFDECF10F0DDCF80
:101B300011F010C0F3FF11C0F4FF020EE15C02E2ED
:101B4000E16AE552E16EE552E7CFD9FF1200D9CF45
:101B5000E6FFE1CFD9FF030EE1260F011A511B1159
:101B600002E1000E08D01ACFE9FF1BCFEAFFEF50C9
:101B7000800B01E0010E000901E00DD10401226B90
:101B8000A0C060F0A1C061F00001A051FF0A01E116
:101B9000C4D0C80A01E1A8D0010A6DE0030A63E0DD
:101BA000010A55E0070A4CE0010A2EE0030A0CE0A6
:101BB000310A01E0B4D00001626B0001010E636FD5
:101BC0000401040E226FADD00401010E226F00014A
:101BD000A15103E18C948C9616D00001A10503E17C
:101BE0008C948C8610D0020E0001A15D03E18C84E0
:101BF0008C9609D0030E0001A15D03E18C848C86D4
:101C000002D00401226B8DD0030E0001A15D0AE118
:101C10000001A251E8B08C84E8A08C940401010E6C
:101C2000226F0DD0040E0001A15D09E10001A25157
:101C3000E8B08C86E8A08C960401010E226F71D06A
:101C40000401246B60DF0401010E226F6AD085EC71
:101C50000FF0000907E004CF61F005CF62F0040146
:101C6000030E226F5ED00401010E246F4CDF0401CD
:101C7000010E226F56D004012651E824020F040100
:101C8000226F04012651E8240001616F26C4DFFFA2
:101C9000DF50000827E20401255104E104011D0E74
:101CA000256F02D00401250704012551E96EEA6A77
:101CB000D890E936EA36270EE926040EEA22EECF5E
:101CC00010F0EFCF11F0EA6ADF34FE0BEA36E96E6E
:101CD000600EE926000EEA2210C0EEFF11C0EDFFF3
:101CE000DF06D6D710DF1DD09280C088C180C09893
:101CF000010EC26EBE0EC16E0ADFDE52F3CFDEFFF2
:101D0000F4CFDDFFDD52010EDBCF61F0020EDBCF41
:101D100062F00401030E226F04D0FF0002D0000025
:101D200000D00401225124E00F011C511D1102E1D9
:101D3000000E08D01CCFE9FF1DCFEAFFEF50800B4B
:101D400001E0010E000914E122C4E6FF600EE66E18
:101D5000000EE66E010EE66E010EE66E18EC0CF05B
:101D6000106E050EE15E1050F3CF1CFFF4CF1DFF87
:101D7000400EE66EA00EE66E000EE66EE66A010EFE
:101D8000E66E18EC0CF0106E050EE15E1050F3CF0D
:101D90001AFFF4CF1BFF030EE15C02E2E16AE55299
:101DA000E16EE552E7CFD9FF12000F011E511F115E
:101DB00004E1100E1E6F270E1F6F1E07000E1F5B23
:101DC00065A208D01E511F1130E18D708D50010B9E
:101DD00013E128D00001E05102E18D9023D0E0050D
:101DE00002E18D8009D0020EE05D02E18D801AD003
:101DF000040EE05D03E18D908D821200100EE05D17
:101E000006E10F011E511F1110E18D700BD0200E45
:101E1000E05D0BE10F011E511F1107E18D708D5028
:101E2000010B02E08D9212008D8212008150100B86
:101E300001E0010E0401205D07E08150100B01E07C
:101E4000010E206F81A8010C000C8150100B01E0E5
:101E5000010E0401215D07E08150100B01E0010E2D
:101E6000216F81A8010C000CD9CFE6FFE1CFD9FF8B
:101E7000ADA2FED7FE0EDB50AE6EE552E7CFD9FF26
:101E800012001200120012001200120012001E0EA8
:101E9000E66E010EE66ED3EC0BF0E552E552400E15
:101EA000E66EA00EE66E000EE66EE66A010EE66EC7
:101EB00018EC0CF0106E050EE15E1050F3CF1AFF17
:101EC000F4CF1BFF120065840401080E636F070E38
:101ED000646F6307000E645B63516411FAE16594FB
:021EE0001200EE
:0E1EE2000F01870E046F0C0E056FBED8180E90
:101EF0009412C00EC76E080EC66EC56A7D0EC86EFF
:101F0000C68A0F01006B016B1200010C0F0100511A
:101F100002E1500E011901E1A1D0100E001901E1FA
:101F2000015101E188D0090E001901E1015174E06D
:101F3000080E001901E101516AE0070E001901E1E4
:101F400001515DE0060E001901E101514DE0050E61
:101F5000001901E1015140E0040E001901E10151B5
:101F600032E0030E001901E1015125E0020E0019D3
:101F700001E1015118E0010E001901E101510AE0EF
:101F800000516FE101516DE19E96C580010E006F19
:101F9000016B12009EA612009E969A0EC96E020E4A
:101FA000006F016B12009EA612009E96C96A030E76
:101FB000006F016B12009EA612009E96C580040E53
:101FC000006F016B12009EA612009E969B0EC96EBA
:101FD000050E006F016B12009EA612009E96C5862C
:101FE000060E006F016B12009EA612009E96C9CFCE
:101FF00003FFC58AC588070E006F016B12009EA6FD
:1020000012009E96C584080E006F016B12009EA6FA
:1020100012009E96090E20D002510325106E020E6A
:10202000116E0E6E10C009F0CCEC11F009C002FF69
:10203000100E0F0111D002CF05FF05BF05D0D890BB
:1020400005330433059F04D0D89005330433058F3E
:10205000048104830485110E006F01D0006B016BB5
:102060001200002B000E01231200D9CFE6FFE1CFB2
:10207000D9FF030EE12604CF10F005CF11F0D89060
:1020800011321032E804FBE189D8D9CFE9FFDACF69
:10209000EAFFEE52EF50100B08E1010EDB9ADB9CD9
:1020A000DB9E0F012B0E066F10D0010EDB8ADB8C3E
:1020B000DB8E0F012D0E066F76D8FF0E101A111A47
:1020C0006DD8DF2A010E01E3DB2A6DD80A0E11025A
:1020D000F3CF11F01002F3CF10F0F4501126040EDC
:1020E000D89011321032E804FBE158D8040EF36E98
:1020F000020EF3CFDBFFDB50000830E254D80A0EAB
:102100000D6E0E6A10C008F011C009F0E6EC11F077
:1021100004C010F005C011F00F0E04143009E66E73
:10212000020EDB50EA6A060FE96E0F0EEA22E55254
:10213000E750EF6ED9CFE9FFDACFEAFF0A0E0D6E56
:102140000E6AEECF08F0EDCF09F0E6EC11F008C012
:10215000EEFF09C0EDFF020EDB06CDD7300E0F01FA
:10216000075D07E1200E076F300E085D02E1200ECB
:10217000086F0ACF0BFF2E0E0A6FF80E0C6F430E7E
:102180000D6F0D0E0E6F0F6B030EE15C02E2E16A44
:10219000E552E16EE552E7CFD9FF120010C0DEFF35
:1021A00011C0DDFF1200DECF10F0DDCF11F0120004
:1021B0001201100100000008D8040C000000010208
:1021C000000109022000010100C0320904000002E0
:1021D00000000000070501024000010705810240E0
:1021E00000010403090434034D0069006300720018
:1021F0006F006300680069007000200054006500F3
:10220000630068006E006F006C006F00670079006B
:10221000200049006E0063002E0038034D00690065
:10222000630072006F0063006800690070002000A6
:1022300043007500730074006F006D0020005500AE
:1022400053004200200044006500760069006300EE
:0A2250006500C221E221E6211A22F6
:06225A002A0EF66E100EC4
:10226000F76E000EF86E0F010900F550156F0900AA
:10227000F550166F03E1156701D03DD00900F55008
:10228000106F0900F550116F0900F550126F090029
:102290000900F550E96E0900F550EA6E09000900E1
:1022A0000900F550136F0900F550146F090009007B
:1022B000F6CF17FFF7CF18FFF8CF19FF10CFF6FFB3
:1022C00011CFF7FF12CFF8FF0F01135302E11453A0
:1022D00007E00900F550EE6E1307F8E21407F9D78E
:1022E00017CFF6FF18CFF7FF19CFF8FF0F0115072B
:0822F000000E165BBFD71200BF
:0822F800DACFE4FFE652E552E3
:10230000E5CFDAFF1100120005D85EEC08F04FECC3
:102310000DF0FBD7D9CFE6FFE1CFD9FF020EE126C2
:10232000580EDE6E020EDD6E9B8CDFCF10F0DF06E6
:10233000010EDBCF11F001E2DB0610501110F5E1C8
:10234000C088C168C268C0981CEC08F02DEC0DF084
:10235000020EE15C02E2E16AE552E16EE552E7CF8E
:04236000D9FF12008F
:0C236400FE0EE3CFE9FFFF0EE3CFEAFF1F
:10237000E9CFF3FFEACFF4FFFB0EE35003E1FC0EDD
:10238000E35009E0FB0EE30602E2FC0EE306FD0E5D
:08239000E350EE6EF1D71200DC
:08239800006A0EAED2EF11F055
:1023A0000E6C001E09AED7EF11F0096C001E0AEC8E
:1023B00012F009BEE1EF11F000AE000C096C056CE3
:0C23C000000C00BEDEEF11F00188FF0CE5
:0423CC00056A046A30
:1023D000100EE76ED89008360936043605360D50D3
:1023E000045C0E50055805E30D50045E0E50055A6E
:0823F000082AE72EF0D71200C5
:0823F8001EEE00F02EEE00F0D5
:10240000F86A019C2DEC11F018EC12F084EC11F03C
:04241000FBD71200E4
:0C241400056A080EE76ED8900936053600
:102420000E50055C02E3056E092AE72EF7D712006D
:02243000120098
:06243200000000000000A4
:020000040001F9
:01FFF800AA5E
:01FFF900F710
:01FFFA000501
:01FFFB00FF06
:01FFFD00F70C
:00000001FF
