:020000040000FA
:0600000032EF0DF01200CA
:0600080004EF04F01200F9
:060018000CEF04F01200E1
:0608000032EF0DF01200C2
:060808001EEF0DF01200CE
:0608180025EF0DF01200B7
:06082A0001008C1A000021
:08083000DD00000006000000DD
:08083800A9EC08F06A6A686A85
:100840009F0E6B6EFB0E696E6D8C6D9C6E6A96ECE6
:1008500008F0DF6ADF50106E116A040E105C000EA3
:10086000115810E2DF50040DF3CFE9FFF4CFEAFF97
:10087000000EE926040EEA22EE6AEE6AEE6AEE6ADD
:10088000DF2AE8D7160E706E68A604D0030E54EC6B
:1008900008F0FAD7DF6A020EDF5C04E20001B86BF1
:1008A000DF2AF9D76D980001040EB06F040EB16F06
:1008B000A66BA56BACEF08F0A9EC08F00001A55100
:1008C0000BE16D6A696A6DB602D06D86FCD70001D6
:1008D000010EA56F140E6F6EA50508E16DBA06D066
:1008E000686A696A69806988020EA56F6850040B9E
:1008F00004E06950040B01E062D86DB248D0685042
:10090000010B11E06950010B0EE096DF0001040EAF
:10091000A56F0401100E026F040E036F080E016F25
:10092000006B8C0E00136850100B04E06950100B24
:1009300001E03FD86850400B07E06950400B04E0ED
:1009400026EC0BF0060EB0DB6850200B04E069507B
:10095000200B01E01DD86850020B06E06950020B25
:1009600003E027EC0BF06A6A040E0001A55D0FE3BB
:1009700069A60DD0DF6A040EDF5C09E268A607D025
:100980006CCFBEF0030E90DB24D8DF2AF4D7E4D37B
:1009900070A00CD0B8DBEF50800807E18FDBEF5080
:1009A000840803E1B0DB8C0EEF6E7090060E54EFFE
:1009B00008F06984040E78DB6D8224EF0BF06D92F1
:1009C00025EC0BF0699468A403D0020E6DDBFBD715
:1009D0001200FD0E0001BE1517E17E0EBE15E840A7
:1009E0007F0B040DF3CFA8F0F4CFA9F0000EA827D9
:1009F000040EA923A8C0AAF0A9C0ABF0F1DB02E164
:100A00000AEF05F01BEF05F0FD0EBE15040801E12D
:100A100024D8120053DBEF50800B02E04FDBEF6A6B
:100A20000001B46BB56BB96BBA6BB86B92D828EC9C
:100A30000BF0C8EF06F0020E0001B55D0CE12CDAF8
:100A400062DBEF50400B03E1A7DBC80E02D0A4DB52
:100A5000880EEF6E120058EF05F07BDB2FDBEF50B6
:100A6000400B01E0010EDF6E080E0001A55D09E1FB
:100A700012C46EFF6E50000802E2100E01D0040E88
:100A8000A56FB50513E11ADB5ADBBCD9020E0001D4
:100A9000B45D03E113DB840E07D0DF5003E10EDB0E
:100AA000C80E02D00BDB880EEF6E01D001D854D3F4
:100AB00088DB030EE126020E0001B55D31E16D50C9
:100AC000100B2EE020DBEE52EF50106E116A080E74
:100AD000101826E1115024E183DB22E15DDBEF50A9
:100AE000800B1EE159DB5DDBDF6ADF50106E116A9F
:100AF000080E105C000E115826E2DF50EA6A180F4B
:100B0000E96E040EEA22EF50E66EDF50EA6A100F3B
:100B1000E96E040EEA22E552E750EF6EDF2AE5D7D0
:100B2000B56B6DDBEF6A000EB019106E010E10C0D0
:100B3000DBFF020EB1C0DBFF010EDBCFE9FF020ECF
:100B4000DBCFEAFFEF6A030EE15C02E2E16AE55205
:100B5000BED204011051600BE842E842E842E8428C
:100B6000E842000901E0120011510C0A43E00B0AAF
:100B70003FE00C0A31E0010A22E00B0A1EE0020A03
:100B80001CE0030A18E0080A10E0010A0CE00F0A52
:100B900008E0030A01E012000001B88F080EA56FFB
:100BA000120058EF06F06CEF07F00001A60EB66FCA
:100BB000000EB76F0CD093EF06F0FBEF05F0145169
:100BC0000001B66FB76BA70EB627000EB723B8812A
:100BD000010EB96FB88F12000001B88F04011451D3
:100BE000EA6AA70FE96E000EEA2212C4EFFF1200B4
:100BF00029EF0BF01200E5DA050EE12604011205DB
:100C000010E110511F0B00090CE10001B88F030E19
:100C10000401115D04E10001010EBD6F02D000016D
:100C2000BD6B040112513EE110511F0B02083AE165
:100C300014510F0B000936E00001B88F040EDB6A77
:100C4000020EF36E040EDBCFF4FFF350F45C2AE2E5
:100C500085DA01E0010E5CDA030E115D03E139DA99
:100C6000840E1CD014510F0B116A700F106E0F0EF2
:100C70001122020E10C0DBFF030E11C0DBFF020EBB
:100C8000DBCFE9FF030EDBCFEAFFEE90ED5214AFAE
:100C900003D01FDA400E02D01CDAC80EEF6E040E2D
:100CA000DB2ACED7050EE15C02E2E16AE5520FD203
:100CB000800E0401105D36E10001C00EB86F040122
:100CC0001351030A1EE0010A09E0030A29E10001A9
:100CD0002E0EB66F180EB76F120E1FD056DAD00E4A
:100CE000F626180E43DA020E0001F76AB625F66EF4
:100CF000B751F7220900F5CFB9F00A00F5CFBAF0E5
:100D0000120043DAD20EF626180E30DAB6C0F6FF1D
:100D1000B7C0F7FF0800F5500001B96FBA6B1200B9
:100D20000001B86B1200CFD90401186B196B105178
:100D30001F0B020A11E0030A0CE0010A19E100018D
:100D4000B88F040118810001BD0512E10401188368
:100D50000FD00001B88F0CD00001B88FFFD901E08F
:100D6000010ED6D9B6D9EF50040B02E0010E186F70
:100D70000001B8AF07D0180EB66F040EB76FB88178
:100D8000020EB96F020EE15C02E2E16AE5529FD108
:100D90006D980001B8BF03D032DA840E31D004015F
:100DA00010AF21D00001B9510401165D0001BA5104
:100DB0000401175904E216C4B9F017C4BAF022D8D6
:100DC0000001010EB56F6CD9800EEF6E9CD9EE520A
:100DD000080EEF6E98D9E5D996D9800EEF6E6ED9D0
:100DE000AED96CD90CD00001020EB56F67D9EE52A6
:100DF000EF6A64D9C80EEF6E10DAA1D9CDD9C80E4A
:100E0000EF6E120060D90001080EB95D000EBA59EC
:100E10000DE2B9C0DEFFBAC0DDFFB45102E1010E40
:100E200003D0B40506E1020EB46F03D0080EDE6EE7
:100E3000DD6A44D9EF9242D9EF9040D9010EDB50E0
:100E4000EF123CD9EE52DFCFEFFF000EDB50B95F5F
:100E5000010EDB50BA5B180EBB6F040EBC6FB8B14D
:100E60000FD073D913E0B6C0F6FFB7C0F7FFB62BAB
:100E7000000EB7230800F55031D9F3E2DB06F1D7B5
:100E800064D904E094D9FCE2DB06FAD7020EE15CF7
:100E900002E2E16AE5521BD116D97ED9EF50030B6D
:100EA000E76E010EE7CFDBFFEE52EFCFDFFFDE5044
:100EB0000001B927DD50BA23180EB66F040EB76FC4
:100EC00044D904E074D9FCE2DB06FAD7020EE15CF7
:100ED00002E2E16AE552FBD00001B88F27D9010E8A
:100EE000E66EE66AE66AA70EE66E000E80D912C4C8
:100EF000A6F00401125104E10001100EA56F1200CA
:100F00000001200EA56F2AEF0BF0DDD8000EDE6E7B
:100F1000040EDD6EFD0EDB50040DF3CF12F0FE0E5D
:100F2000DB50080DF3501224106E116A020E0F0BE5
:100F300005E0D89011321032E806FBE1D890103667
:100F40001136D890103611365FD91050EE26115058
:100F5000ED22BFD8EF9EFD0EDB5002E137D901D064
:100F60003AD9EA22DECFEEFFDDCFEDFFB2D8EF8C2B
:100F7000020EE15C02E2E16AE552A9D0A4D8FE0EBD
:100F8000DB50116A700F106E0F0E112210C0DEFFC1
:100F900011C0DDFFFD0EDB50E66E9BD8E552E75039
:100FA000EE6EED6AFD0EDBA402D0E66AE7D8FD0E18
:100FB000DBA203D0010EE66EE1D8020EE15C02E294
:100FC000E16AE55284D07FD8FD0EDBCFE6FFFE0E4E
:100FD000DB50E824E552E724040DF3CF10F0F4CF02
:100FE00011F0000E1026040E112210C0DEFF11C0F9
:100FF000DDFF840E6ED8E850EF12020EE15C02E2D3
:10100000E16AE55264D05FD8FD0EDB5002E0E3D820
:1010100001D0DCD8EA22EECFDEFFEDCFDDFF59D8DC
:10102000EF7C57D800D9FB0EDBCFEEFFFC0EDBCFF9
:10103000EDFF4FD8EE52FA0EDBCFEFFF400E49D84E
:10104000E850EF16880E45D8E850EF12FD0EDB5041
:1010500002E0C1D801D0BAD8EA22DECF10F0DDCF4D
:1010600011F010C0F3FF11C0F4FF020EE15C02E2C8
:10107000E16AE5522CD0A5D8010EF36EFC0EDB50D0
:1010800004E0D890F336E806FCE1F31C106EFD0E88
:10109000DBCFE9FFFE0EDBCFEAFF1050EF16B9D031
:1010A000BCD87FD8CCEF08F0E66E680EE66E0F0E67
:1010B000E66EE1DFE552E552E5521200B0C0E9FF0D
:1010C000B1C0EAFF12007DD8020EE1261200E16EE7
:1010D000A0D0DECFE9FFDDCFEAFF1200E66EBBC095
:1010E000E9FFBCC0EAFFBB2B000EBC23E552E75072
:1010F000EF6EDF06010E1200FE0EEA6ADB34FE0B15
:10110000EA36E96E1200A8C0E9FFA9C0EAFF1200A2
:10111000126E14510F0BE8241224040DF4CF11F0B9
:1011200073D8F350EE261150ED2212000F0EE66E2A
:10113000E66AE66A710EE66E0F0EF7EF08F073D8F6
:10114000180EEE6E040EED6E12005ED8EE50ED102D
:10115000120037D8E6521200E5525BD0000EDE6E68
:10116000040EDD6E04011451800B1200F7220900F9
:10117000F5CFB6F00A00F5CFB7F01200FE0EDBCFC8
:10118000E6FFC3DEE552E55212001251F66EF76A31
:10119000D890F636F7361200AAC0E9FFABC0EAFFD6
:1011A000120041D8100EEE6E040EED6E1200B6C0A5
:1011B000E9FFB7C0EAFFB62B000EB723EF506EEF82
:1011C00008F0D9CFE6FFE1CFD9FF120095DFAC0ED2
:1011D000E926000E120090DFB00EE926000E120084
:1011E00092DFEF503C0BE842E8420D081200E66E39
:1011F000EEEC0CF0106E050EE15E1050120050DFA8
:101200008C0EEF6E5EEF08F0D9CFE9FFDACFEAFF80
:101210001200E552E7CFD9FF1200BEDFEE52080EF2
:10122000EF6ECCEF08F0020EE926000EEA22120063
:10123000F00E8C1695169388938A8150100B01E05E
:10124000010E0001606F8150200B01E0010E616F03
:1012500054EC0BF09280010EC26E3C0EC06EC08E3C
:1012600037D80001646B970ED56E120081D9200E1D
:101270000001A55D2CE36D50020B01E012004CD87B
:101280000001640524E1F2A422D0F294480ED76E46
:10129000E50ED66E67EC0BF0000919E00001655110
:1012A000E96EEA6AD890E936EA36670EE926000E5A
:1012B000EA22C7C0EEFFC8C0EDFF1E0E665D01E268
:1012C000662B1D0E655D02E1656B1200652B120039
:1012D0000001656B666B1200D9CFE6FFE1CFD9FF45
:1012E000020EE126C282C2B2FED7C350DF6E010EEB
:1012F000C4CFDBFFDECF10F0DDCF11F010C0F3FF65
:1013000011C0F4FF020EE15C02E2E16AE552E16E17
:10131000E552E7CFD9FF1200D9CFE6FFE1CFD9FFE1
:10132000030EE1260001DD51DE1102E1000E08D0BE
:10133000DDC0E9FFDEC0EAFFEF50800B01E0010EE7
:10134000000901E00BD10001626B60C420F461C4AC
:1013500021F404016051FF0A01E1C2D0C80A01E191
:10136000A8D0010A6DE0030A63E0010A55E0070A0C
:101370004CE0010A2EE0030A0CE0310A01E0B2D091
:101380000401226B0401010E236F0001040E626F41
:10139000ABD00001010E626F0401615103E18C9436
:1013A0008C9616D00401610503E18C948C8610D0D4
:1013B000020E0401615D03E18C848C9609D0030E5A
:1013C0000401615D03E18C848C8602D00001626BB4
:1013D0008BD0030E0401615D0AE104016251E8B0A3
:1013E0008C84E8A08C940001010E626F0DD0040E75
:1013F0000401615D09E104016251E8B08C86E8A056
:101400008C960001010E626F6FD00001646B60DF8B
:101410000001010E626F68D067EC0BF0000907E075
:10142000C7C021F4C8C022F40001030E626F5CD073
:101430000001010E646F4CDF0001010E626F54D099
:1014400000016651E824020F0001626F000166513D
:10145000E8240401216F66C0DFFFDF50000827E2A7
:101460000001655104E100011D0E656F02D000010D
:10147000650700016551E96EEA6AD890E936EA36F7
:10148000670EE926000EEA22EECF10F0EFCF11F042
:10149000EA6ADF34FE0BEA36E96E200EE926040E16
:1014A000EA2210C0EEFF11C0EDFFDF06D6D710DF35
:1014B0001BD09280010EC26E3C0EC06EC08E0CDF3F
:1014C000DE52F3CFDEFFF4CFDDFFDD52010EDBCFC6
:1014D00021F4020EDBCF22F40001030E626F04D070
:1014E000FF0002D0000000D00001625124E00001A2
:1014F000DF51E01102E1000E08D0DFC0E9FFE0C0DB
:10150000EAFFEF50800B01E0010E000914E162C018
:10151000E6FF200EE66E040EE66E010EE66E010E8C
:10152000E66E03EC08F0106E050EE15E1050F3CF8E
:10153000DFF0F4CFE0F0400EE66E600EE66E040ED3
:10154000E66EE66A010EE66E03EC08F0106E050E1C
:10155000E15E1050F3CFDDF0F4CFDEF0030EE15C7E
:1015600002E2E16AE552E16EE552E7CFD9FF1200EF
:101570000001E151E21104E1100EE16F270EE26F6C
:10158000E107000EE25B6DA208D0E151E21130E10B
:101590008C708C50010B13E128D00001A55102E1A1
:1015A0008C9023D0A50502E18C8009D0020EA55DA8
:1015B00002E18C801AD0040EA55D03E18C908C8230
:1015C0001200100EA55D06E10001E151E21110E1EB
:1015D0008C700BD0200EA55D0BE10001E151E211F2
:1015E00007E18C708C50010B02E08C9212008C820F
:1015F00012008150100B01E0010E0001605D07E058
:101600008150100B01E0010E606F81A8010C000CED
:101610008150200B01E0010E0001615D07E0815067
:10162000200B01E0010E616F81AA010C000CD9CFE3
:10163000E6FFE1CFD9FFACA2FED7FE0EDB50AD6EC8
:10164000E552E7CFD9FF120012001200120012007B
:10165000120012001E0EE66E010EE66EBEEC07F0E2
:10166000E552E552400EE66E600EE66E040EE66E42
:10167000E66A010EE66E03EC08F0106E050EE15E00
:101680001050F3CFDDF0F4CFDEF012006D840001D6
:10169000080EA36F070EA46FA307000EA45BA3514F
:0816A000A411FAE16D9412009F
:0816A8008A849394E66A030EA4
:1016B000E66E020EE66EBBEC0CF0E552E552E5522A
:1016C0000001870EC76F0C0EC86F74EF0BF08A9481
:1016D00040EC0DF00001C86F40EC0DF00001C76F49
:1016E0008A84C7A5000C010CD9CFE6FFE1CFD9FF52
:1016F000030EE126C7C010F0C8C011F0D890113217
:101700001032E804FBE189D8D9CFE9FFDACFEAFF4C
:10171000EE52EF50100B08E1010EDB9ADB9CDB9ED2
:1017200000012B0EC96F10D0010EDB8ADB8CDB8E23
:1017300000012D0EC96F76D8FF0E101A111A6DD840
:10174000DF2A010E01E3DB2A6DD80A0E1102F3CF66
:1017500011F01002F3CF10F0F4501126040ED890BF
:1017600011321032E804FBE158D8040EF36E020E79
:10177000F3CFDBFFDB50000830E254D80A0E0B6ECB
:101780000C6A10C006F011C007F008EC0DF002C0A2
:1017900010F003C011F00F0E02143009E66E020EB5
:1017A000DB50EA6AC90FE96E000EEA22E552E75003
:1017B000EF6ED9CFE9FFDACFEAFF0A0E0B6E0C6AA3
:1017C000EECF06F0EDCF07F008EC0DF006C0EEFF0F
:1017D00007C0EDFF020EDB06CDD7300E0001CA5D5B
:1017E00007E1200ECA6F300ECB5D02E1200ECB6FF9
:1017F000CDC0CEF02E0ECD6FF80ECF6F430ED06F52
:101800000D0ED16FD26B030EE15C02E2E16AE5528C
:10181000E16EE552E7CFD9FF120010C0DEFF11C024
:0E182000DDFF1200DECF10F0DDCF11F0120060
:02182E001201A5
:10183000100100000008D8040C00000001020001A3
:1018400009022000010100C032090400000200006A
:101850000000070501024000010705810240000168
:101860000403090434034D006900630072006F0033
:101870006300680069007000200054006500630088
:1018800068006E006F006C006F0067007900200038
:1018900049006E0063002E0038034D0069006300AC
:1018A00072006F0063006800690070002000430050
:1018B0007500730074006F006D0020005500530028
:1018C0004200200044006500760069006300650066
:0818D000401860186418981814
:0818D8002A0EF66E080EF76EF1
:1018E000000EF86E00010900F550D86F0900F550A0
:1018F000D96F03E1D86701D03DD00900F550D36F0F
:101900000900F550D46F0900F550D56F09000900A2
:10191000F550E96E0900F550EA6E0900090009006A
:10192000F550D66F0900F550D76F09000900F6CFC2
:10193000DAF0F7CFDBF0F8CFDCF0D3C0F6FFD4C09D
:10194000F7FFD5C0F8FF0001D65302E1D75307E0F7
:101950000900F550EE6ED607F8E2D707F9D7DAC0DE
:10196000F6FFDBC0F7FFDCC0F8FF0001D807000E70
:06197000D95BBFD7120095
:0A197600D9CFE6FFDACFE6FFE1CF9C
:10198000D9FFE2CFDAFF3F0EC716C66AFD0EDB5065
:10199000C612FB0EDB50C712FC0EDB50030A09E037
:1019A000010A04E0020A06E1C78C04D0C78CC6888D
:1019B00001D0C688FD0EDB50050A03E0010A04E1F0
:1019C000928A9382C79E01D09392949E9380C68AF6
:0C19D000E552E5CFDAFFE7CFD9FF1200A7
:0419DC00FE0EE3CF49
:1019E000E9FFFF0EE3CFEAFFE9CFF3FFEACFF4FF11
:1019F000FB0EE35003E1FC0EE35009E0FB0EE306AF
:101A000002E2FC0EE306FD0EE350EE6EF1D712008B
:101A1000036A026A100EE76ED89006360736023661
:101A200003360B50025C0C50035805E30B50025E6A
:0C1A30000C50035A062AE72EF0D71200D3
:041A3C00DACFE4FF1A
:101A4000E652E552E5CFDAFF1100120005D85CEC52
:101A500004F036EC09F0FBD70F0EC1121CEC04F0B9
:041A600018EF09F082
:0C1A640013EE00F023EE00F0F86A0F9C77
:101A70006CEC0CF045EC0DF026EC0DF0FBD71200F1
:0A1A8000C96AC7A0FED7C9501200C2
:021A8A00120048
:041A8C000000000056
:021A9000000054
:020000040030CA
:0100000024DB
:010001000EF0
:010002003FBE
:010003001EDE
:010005008179
:010006008178
:010008000FE8
:01000900C036
:01000A000FE6
:01000B00A054
:01000C000FE4
:01000D0040B2
:00000001FF
