:020000040000FA
:0600000082EF11F0120076
:0600080004EF08F01200F5
:060018000CEF08F01200DD
:0610000082EF11F0120066
:0610080080EF10F0120061
:0610180082EF10F012004F
:06102A0001003A23000062
:08103000E200000006000000D0
:08103800DEEC0CF06A6A686A44
:101040009F0E6B6EFB0E696E6D8C6D9C6E6AC2ECB2
:101050000CF0DF6ADF50106E116A040E105C000E97
:10106000115810E2DF50040DF3CFE9FFF4CFEAFF8F
:10107000000EE926040EEA22EE6AEE6AEE6AEE6AD5
:10108000DF2AE8D7160E706E68A604D0030E88EC2F
:101090000CF0FAD70001B66BBB6B6D98040EAE6F07
:1010A000040EAF6FA46BA36BE1EF0CF0DEEC0CF061
:1010B0000001A3510BE16D6A696A6DB602D06D86BD
:1010C000FCD70001010EA36F140E6F6EA30508E19B
:1010D0006DBA06D0686A696A69806988020EA36F72
:1010E0006850040B04E06950040B01E063D86DB252
:1010F00048D06850010B11E06950010B0EE09CDFF5
:101100000001040EA36F0401100E026F040E036FA2
:10111000080E016F006B8C0E00136850100B04E07A
:101120006950100B01E040D86850400B07E069504F
:10113000400B04E09CEC10F0060EEADB6850200B3C
:1011400004E06950200B01E01ED86850020B06E055
:101150006950020B03E09DEC10F06A6A040E000176
:10116000A35D0FE369A60DD0DF6A040EDF5C09E220
:1011700068A607D06CCFC3F0030ECADB25D8DF2AE0
:10118000F4D7E1EF0CF070A00CD0E9DBEF50800851
:1011900007E1C8DBEF50840803E1E1DB8C0EEF6E62
:1011A0007090060E88EF0CF06984040EB1DB6D823E
:1011B0009AEF10F06D929BEC10F0699468A403D044
:1011C000020EA6DBFBD71200FD0E0001C31518E1CD
:1011D0007E0EC315E8407F0B040DF3CFA6F0F4CFCD
:1011E000A7F0000EA627040EA723A6C0A8F0A7C04C
:1011F000A9F031EC0DF002E106EF09F017EF09F06C
:10120000FD0EC315040801E11AD812008BDBEF5064
:10121000800B02E087DBEF6A0001B26BB36BB76B48
:10122000B86BB66B81D89EEC10F0B3EF0AF0020EEB
:101230000001B35D02E13DEF0BF049EF09F0BEDBC9
:1012400071DBEF50400B01E0010EDF6E080E000174
:10125000A35D09E112C46EFF6E50000802E2100E99
:1012600001D0040EA36FB30512E1EDDBB4D9020E79
:101270000001B25D03E156DB840E07D0DF5003E1CD
:1012800051DBC80E02D04EDB880EEF6E01D001D8C4
:1012900098D3D4DB030EE126020E0001B35D2BE1EF
:1012A0006D50100B28E05BDBEE52EF50106E116AB0
:1012B000080E101820E111501EE1D3DB1CE1ADDB5C
:1012C000EF50800B18E1A9DBADDBDF6ADF50106E59
:1012D000116A080E105C000E115820E2DF5073DB1B
:1012E000DF50EA6A100FE96E040EEA22E552E75079
:1012F000EF6EDF2AEBD7B36B9BDBEF6A000EAE1904
:10130000106E010E10C0DBFF020EAFC0DBFF010E3E
:10131000DBCFE9FF020EDBCFEAFFEF6A030EE15CF1
:1013200002E2E16AE55207D304011051600BE84282
:10133000E842E842E842E842000901E012001151A7
:101340000C0A43E00B0A3FE00C0A31E0010A22E0FC
:101350000B0A1EE0020A1CE0030A18E0080A10E06B
:10136000010A0CE00F0A08E0030A01E01200000184
:10137000B68F080EA36F120043EF0AF096EF0BF042
:101380000001A40EB46F000EB56F0CD07EEF0AF012
:10139000E6EF09F014510001B46FB56BA50EB42748
:1013A000000EB523B681010EB76FB68F1200000193
:1013B000B68F04011451EA6AA50FE96E000EEA2205
:1013C00012C4EFFF12009FEF10F0120037DB050E82
:1013D000E1260401120510E110511F0B00090CE178
:1013E0000001B68F030E0401115D04E10001010E3E
:1013F000C26F02D00001C26B040112513EE11051D4
:101400001F0B02083AE114510F0B000936E00001EE
:10141000B68F040EDB6A020EF36E040EDBCFF4FF10
:10142000F350F45C2AE2D7DA01E0010E9DDA030EF4
:10143000115D03E182DA840E1CD014510F0B116A86
:10144000700F106E0F0E1122020E10C0DBFF030E84
:1014500011C0DBFF020EDBCFE9FF030EDBCFEAFF9B
:10146000EE90ED5214AF03D068DA400E02D065DA88
:10147000C80EEF6E040EDB2ACED7050EE15C02E249
:10148000E16AE55258D2800E0401105D36E1000198
:10149000C00EB66F04011351030A1EE0010A09E0F1
:1014A000030A29E10001560EB46F200EB56F120E2B
:1014B0001FD0A8DAF80EF626200E95DA020E0001EB
:1014C000F76AB425F66EB551F7220900F5CFB7F0EB
:1014D0000A00F5CFB8F0120095DAFA0EF626200EC3
:1014E00082DAB4C0F6FFB5C0F7FF0800F55000017E
:1014F000B76FB86B12000001B66B120018DA040166
:10150000186B196B10511F0B020A11E0030A0CE053
:10151000010A19E10001B68F040118810001C2051A
:1015200012E1040118830FD00001B68F0CD0000126
:10153000B68F51DA01E0010E17DAFFD9EF50040B34
:1015400002E0010E186F0001B6AF07D0180EB46F9D
:10155000040EB56FB681020EB76F020EE15C02E2B7
:10156000E16AE552E8D16D980001B6BF07D0BBAF84
:1015700002D092DA28D05CDA840E26D0BBBF2AD003
:10158000040110AF23D00001B7510401165D000122
:10159000B8510401175904E216C4B7F017C4B8F0E3
:1015A0001AD80001010EB36FACD9D3D9800EEF6EFB
:1015B000D6D9EE52080EEF6ED2D934DAD0D9800ED9
:1015C000EF6E41DAAFD9C80EEF6E1200000164DA97
:1015D000C80EEF6E1200ABD90001080EB75D000E09
:1015E000B8590DE2B7C0DEFFB8C0DDFFB25102E16D
:1015F000010E03D0B20506E1020EB26F03D0080E51
:10160000DE6EDD6A8FD9EF928DD9EF908BD9010E06
:10161000DB50EF1287D9EE52DFCFEFFF000EDB5029
:10162000B75F010EDB50B85B180EC06F040EC16FC0
:10163000B6B10FD0EED91BE0B4C0F6FFB5C0F7FFCE
:10164000B42B000EB5230800F550A5D9F3E2DB0654
:10165000F1D7DFD90CE0B4C0E9FFB5C0EAFFB42B85
:10166000000EB523EF5097D9F4E2DB06F2D7020E55
:10167000E15C02E2E16AE5525ED159D970D9EE52DD
:10168000EFCFDFFFDFCF10F010500001BC5D000E88
:10169000BD5903E2BCC0DFFF09D0DF50106E116AF4
:1016A000E850BC5DBC6F1150BD59BD6F010EDB6AC7
:1016B000DF50F36E010EDBCFF4FFF350F45C10E269
:1016C000010EDB5080D9B9C0E9FFBAC0EAFFB92BDF
:1016D000000EBA23E552E750EF6E010EDB2AE8D781
:1016E000000ED880BC55000EBD550CE2C9D937D9C3
:1016F000EF50400B03E191D9C80E02D08ED9880E6D
:10170000EF6E0ED08AD98ED9BE51BF1107E005D039
:10171000BFC0FAFF0001BE51F96EFADF0001BB9FA6
:10172000020EE15C02E2E16AE55205D10001B68FEA
:1017300029D9010EE66EE66AE66AA50EE66E000E8F
:1017400097D912C4A4F00401125104E10001100E53
:10175000A36F12000001200EA36FA0EF10F0E7D8D6
:10176000000EDE6E040EDD6EFD0EDB50040DF3CFB9
:1017700012F0FE0EDB50080DF3501224106E116AA9
:10178000020E0F0B05E0D89011321032E806FBE193
:10179000D89010361136D8901036113674D91050B2
:1017A000EE261150ED22C9D8EF9EFD0EDB5002E16E
:1017B0004ED901D051D9EA22DECFEEFFDDCFEDFFC9
:1017C000BCD8EF8C020EE15C02E2E16AE552B3D0D4
:1017D000AED8FE0EDB50116A700F106E0F0E112284
:1017E00010C0DEFF11C0DDFFFD0EDB50E66EA5D898
:1017F000E552E750EE6EED6AFD0EDBA402D0E66A1C
:10180000FAD8FD0EDBA203D0010EE66EF4D8020E6C
:10181000E15C02E2E16AE5528ED089D8FE0EDB502F
:1018200004E106D9840EEF6E19D0FD0EDBCFE6FF82
:10183000FE0EDB50E824E552E724040DF3CF10F050
:10184000F4CF11F0000E1026040E112210C0DEFF9E
:1018500011C0DDFF840E71D8E850EF12020EE15C7A
:1018600002E2E16AE55267D062D8FD0EDB5002E089
:10187000F3D801D0ECD8EA22EECFDEFFEDCFDDFFCA
:101880005CD8EF7C5AD813D9FB0EDBCFEEFFFC0EF1
:10189000DBCFEDFF52D8EE52FA0EDBCFEFFF400E5A
:1018A0004CD8E850EF16880E48D8E850EF12FD0EDD
:1018B000DB5002E0D1D801D0CAD8EA22DECF10F046
:1018C000DDCF11F010C0F3FF11C0F4FF020EE15C98
:1018D00002E2E16AE5522FD0B1D8010EF36EFC0EA0
:1018E000DB5004E0D890F336E806FCE1F31C106E00
:1018F000FD0EDBCFE9FFFE0EDBCFEAFF1050EF1647
:10190000C7D08BD8EE52080EEF6E87D857EF0DF088
:10191000E66E680EE66E0F0EE66EDEDFE552E5520D
:10192000E5521200AEC0E9FFAFC0EAFF120086D850
:10193000020EE1261200E16EABD0DECFE9FFDDCF73
:10194000EAFF1200FE0EEA6ADB34FE0BEA36E96EAD
:101950001200100EEE6E040EED6E0DEF0DF0A6C02F
:10196000E9FFA7C0EAFF1200126E14510F0BE82422
:101970001224040DF4CF11F086D8F350EE26115046
:10198000ED221200000EE66EE66AE66A710EE66E61
:101990000F0E38EF0DF0E66EC0C0E9FFC1C0EAFFE0
:1019A000C02B000EC123E552E750EF6EDF06010E9B
:1019B0001200180EEE6E040EED6E12003FD8E652C5
:1019C0001200E55265D0EA6A180FE96E040EEA22A9
:1019D000EF50E66E1200000EDE6E040EDD6E0401A6
:1019E0001451800B1200F7220900F5CFB4F00A0061
:1019F000F5CFB5F01200FE0EDBCFE6FFB0DEE5520C
:101A0000E55212001251F66EF76AD890F636F736A4
:101A1000120039D8EE50ED101200A8C0E9FFA9C09D
:101A2000EAFF120044D8100EEE6E040EED6E1200A6
:101A300068DF8FDF8C0EEF6E92EF0CF0D9CFE6FFF0
:101A4000E1CFD9FF12006EDF32D8D9EF0CF07ADF88
:101A5000AA0EE926000E120075DFAE0EE926000E72
:101A600012007DDFEF503C0BE842E8420D08120007
:101A7000E66E52EC11F0106E050EE15E1050120091
:101A800040DFD9EF0CF0D9CFE9FFDACFEAFF12003F
:101A9000E552E7CFD9FF1200020EB36F43DFEE52DB
:101AA000EF6A40DFC80EEF6EEBDF0DEF0DF0020EB8
:081AB000E926000EEA221200F3
:081AB800F00E8C1695169388C0
:101AC000938A8150100B01E0010E0001606F81507C
:101AD000200B01E0010E616F68EC0FF09280010EA7
:101AE000C26E3C0EC06EC08E37D80001646B970E7C
:101AF000D56E120081D9200E0001A35D2CE36D503C
:101B0000020B01E012004CD80001640524E1F2A4AC
:101B100022D0F294480ED76EE50ED66E7BEC0FF015
:101B2000000919E000016551E96EEA6AD890E936CA
:101B3000EA36670EE926000EEA22CCC0EEFFCDC0E1
:101B4000EDFF1E0E665D01E2662B1D0E655D02E176
:101B5000656B1200652B12000001656B666B12004D
:101B6000D9CFE6FFE1CFD9FF020EE126C282C2B291
:101B7000FED7C350DF6E010EC4CFDBFFDECF10F007
:101B8000DDCF11F010C0F3FF11C0F4FF020EE15CD5
:101B900002E2E16AE552E16EE552E7CFD9FF1200B9
:101BA000D9CFE6FFE1CFD9FF030EE1260001E251D4
:101BB000E31102E1000E08D0E2C0E9FFE3C0EAFF52
:101BC000EF50800B01E0010E000901E00BD1000194
:101BD000626B60C420F461C421F404016051FF0A07
:101BE00001E1C2D0C80A01E1A8D0010A6DE0030AF0
:101BF00063E0010A55E0070A4CE0010A2EE0030AFF
:101C00000CE0310A01E0B2D00401226B0401010EA4
:101C1000236F0001040E626FABD00001010E626FF2
:101C20000401615103E18C948C9616D00401610586
:101C300003E18C948C8610D0020E0401615D03E1F7
:101C40008C848C9609D0030E0401615D03E18C84C1
:101C50008C8602D00001626B8BD0030E0401615DA3
:101C60000AE104016251E8B08C84E8A08C94000180
:101C7000010E626F0DD0040E0401615D09E10401E3
:101C80006251E8B08C86E8A08C960001010E626F6C
:101C90006FD00001646B60DF0001010E626F68D0DD
:101CA0007BEC0FF0000907E0CCC021F4CDC022F49A
:101CB0000001030E626F5CD00001010E646F4CDF07
:101CC0000001010E626F54D000016651E824020F3A
:101CD0000001626F00016651E8240401216F66C0B3
:101CE000DFFFDF50000827E20001655104E1000139
:101CF0001D0E656F02D00001650700016551E96E98
:101D0000EA6AD890E936EA36670EE926000EEA223A
:101D1000EECF10F0EFCF11F0EA6ADF34FE0BEA36B7
:101D2000E96E200EE926040EEA2210C0EEFF11C073
:101D3000EDFFDF06D6D710DF1BD09280010EC26EFA
:101D40003C0EC06EC08E0CDFDE52F3CFDEFFF4CF50
:101D5000DDFFDD52010EDBCF21F4020EDBCF22F4DA
:101D60000001030E626F04D0FF0002D0000000D01B
:101D70000001625124E00001E451E51102E1000E8E
:101D800008D0E4C0E9FFE5C0EAFFEF50800B01E0B6
:101D9000010E000914E162C0E6FF200EE66E040E9B
:101DA000E66E010EE66E010EE66E34EC0CF0106E7F
:101DB000050EE15E1050F3CFE4F0F4CFE5F0400EF5
:101DC000E66E600EE66E040EE66EE66A010EE66EE4
:101DD00034EC0CF0106E050EE15E1050F3CFE2F023
:101DE000F4CFE3F0030EE15C02E2E16AE552E16E5A
:101DF000E552E7CFD9FF12000001E651E71104E1F7
:101E0000100EE66F270EE76FE607000EE75B6DA288
:101E100008D0E651E71130E18C708C50010B13E1D2
:101E200028D00001A35102E18C9023D0A30502E148
:101E30008C8009D0020EA35D02E18C801AD0040EC2
:101E4000A35D03E18C908C821200100EA35D06E16D
:101E50000001E651E71110E18C700BD0200EA35D5C
:101E60000BE10001E651E71107E18C708C50010B8A
:101E700002E08C9212008C8212008150100B01E063
:101E8000010E0001605D07E08150100B01E0010EC2
:101E9000606F81A8010C000C8150200B01E0010E45
:101EA0000001615D07E08150200B01E0010E616FD0
:101EB00081AA010C000CD9CFE6FFE1CFD9FFACA27B
:101EC000FED7FE0EDB50AD6EE552E7CFD9FF120014
:101ED0008A849394E66A030EE66E020EE66E20ECA8
:101EE00011F0E552E552E5520001870ECC6F0C0E61
:101EF000CD6F88EF0FF08A9497EC11F00001CD6F51
:101F000097EC11F00001CC6F8A84CCA5000C010C79
:101F1000D9CFE6FFE1CFD9FF030EE126CCC010F008
:101F2000CDC011F0D89011321032E804FBE189D80D
:101F3000D9CFE9FFDACFEAFFEE52EF50100B08E1FC
:101F4000010EDB9ADB9CDB9E00012B0ECE6F10D0C6
:101F5000010EDB8ADB8CDB8E00012D0ECE6F76D876
:101F6000FF0E101A111A6DD8DF2A010E01E3DB2AC9
:101F70006DD80A0E1102F3CF11F01002F3CF10F05A
:101F8000F4501126040ED89011321032E804FBE10F
:101F900058D8040EF36E020EF3CFDBFFDB500008BF
:101FA00030E254D80A0E0B6E0C6A10C006F011C055
:101FB00007F06CEC11F002C010F003C011F00F0E2E
:101FC00002143009E66E020EDB50EA6ACE0FE96EAB
:101FD000000EEA22E552E750EF6ED9CFE9FFDACFE3
:101FE000EAFF0A0E0B6E0C6AEECF06F0EDCF07F09B
:101FF0006CEC11F006C0EEFF07C0EDFF020EDB0631
:10200000CDD7300E0001CF5D07E1200ECF6F300E2F
:10201000D05D02E1200ED06FD2C0D3F02E0ED26F71
:10202000F80ED46F430ED56F0D0ED66FD76B030E1F
:10203000E15C02E2E16AE552E16EE552E7CFD9FFE9
:10204000120010C0DEFF11C0DDFF1200DECF10F065
:06205000DDCF11F01200CB
:0A2056001201100100000008D80478
:102060000C0000000102000109022000010100C073
:1020700032090400000200000000070501024000D0
:1020800001070581024000010403090434034D00E7
:102090006900630072006F006300680069007000EF
:1020A000200054006500630068006E006F006C0043
:1020B0006F0067007900200049006E0063002E0069
:1020C00038034D006900630072006F006300680010
:1020D00069007000200043007500730074006F00F9
:1020E0006D002000550053004200200044006500B0
:1020F0007600690063006500682088208C20C0207D
:1021000049D81100D8CFE4FFE0CFE4FFE46E42D815
:10211000E550E5CFE0FFE5CFD8FF100005D856EC3D
:1021200008F07AEC0DF0FBD70F0EC1121CEC08F092
:102130005CEF0DF0120012001200120012001200EB
:102140001E0EE66E010EE66EE8EC0BF0E552E5526F
:10215000400EE66E600EE66E040EE66EE66A010E56
:10216000E66E34EC0CF0106E050EE15E1050F3CF0D
:10217000E2F0F4CFE3F012006D840001080EE86F86
:10218000070EE96FE807000EE95BE851E911FAE193
:102190006D941200DACFE4FFE652E552E5CFDAFFA4
:0221A00012002B
:0E21A2002A0EF66E100EF76E000EF86E00019B
:1021B0000900F550DD6F0900F550DE6F03E1DD67C2
:1021C00001D03DD00900F550D86F0900F550D96F06
:1021D0000900F550DA6F09000900F550E96E0900B1
:1021E000F550EA6E090009000900F550DB6F09009F
:1021F000F550DC6F09000900F6CFDFF0F7CFE0F013
:10220000F8CFE1F0D8C0F6FFD9C0F7FFDAC0F8FF89
:102210000001DB5302E1DC5307E00900F550EE6EEC
:10222000DB07F8E2DC07F9D7DFC0F6FFE0C0F7FF15
:10223000E1C0F8FF0001DD07000EDE5BBFD7120032
:10224000D9CFE6FFDACFE6FFE1CFD9FFE2CFDAFF61
:102250003F0EC716C66AFD0EDB50C612FB0EDB50E2
:10226000C712FC0EDB50030A09E0010A04E0020A6F
:1022700006E1C78C04D0C78CC68801D0C688FD0E85
:10228000DB50050A03E0010A03E1928A938201D040
:1022900093929380949EC68AE552E5CFDAFFE7CF0A
:0422A000D9FF120050
:0C22A400FE0EE3CFE9FFFF0EE3CFEAFFE0
:1022B000E9CFF3FFEACFF4FFFB0EE35003E1FC0E9E
:1022C000E35009E0FB0EE30602E2FC0EE306FD0E1E
:0822D000E350EE6EF1D712009D
:0822D800036A026A100EE76EB2
:1022E000D89006360736023603360B50025C0C5087
:1022F000035805E30B50025E0C50035A062AE72EE2
:04230000F0D7120000
:0C23040013EE00F023EE00F0F86A0F9CCE
:10231000D1EC10F09CEC11F08EEC10F0FBD7120019
:0E23200000EE00F00F0EEE6AEA62FDD712002A
:02232E00C96A7A
:08233000C7A0FED7C95012003E
:02233800120091
:06233A000000000000009D
:020000040030CA
:0100000024DB
:010001000EF0
:010002003FBE
:010003001EDE
:010005008179
:010006008178
:010008000FE8
:01000900C036
:01000A000FE6
:01000B00A054
:01000C000FE4
:01000D0040B2
:00000001FF
