:020000040000FA
:0600000057EF09F01200A9
:0600080004EF04F01200F9
:060018000CEF04F01200E1
:06002A000100F8070000D0
:08003000E200000006000000E0
:08003800F00E8B1694168050A7
:10004000080B01E0010E0001606F8050080B01E019
:10005000010E616F28EC02F09388290EC26EC16A0E
:100060003E0EC06EC08E37D80001646B970ED56E01
:10007000120082D9200E0001A35D2CE36450020B14
:1000800001E012004CD80001640524E1F2A422D062
:10009000F294480ED76EE50ED66E29EC02F00009F8
:1000A00019E000016551E96EEA6AD890E936EA364E
:1000B000670EE926000EEA22CCC0EEFFCDC0EDFFB0
:1000C0001E0E665D01E2662B1D0E655D02E1656B2D
:1000D0001200652B12000001656B666B1200D9CF10
:1000E000E6FFE1CFD9FF020EE126C282C2B2FED7FF
:1000F000C350DF6E010EC4CFDBFFDECF10F0DDCFCB
:1001000011F010C0F3FF11C0F4FF020EE15C02E237
:10011000E16AE552E16EE552E7CFD9FF1200D9CF8F
:10012000E6FFE1CFD9FF030EE1260001E251E31122
:1001300002E1000E08D0E2C0E9FFE3C0EAFFEF50A1
:10014000800B01E0010E000901E00CD10001626B9F
:1001500060C220F261C221F202016051FF0A01E196
:10016000C3D0C80A01E1A8D0010A6DE0030A63E028
:10017000010A55E0070A4CE0010A2EE0030A0CE0F0
:10018000310A01E0B3D00201226B0201010E236F9C
:100190000001040E626FACD00001010E626F02011B
:1001A000615103E18B948B9616D00201610503E146
:1001B0008B948B8610D0020E0201615D03E18B846B
:1001C0008B9609D0030E0201615D03E18B848B865F
:1001D00002D00001626B8CD0030E0201615D0AE166
:1001E00002016251E8B08B84E8A08B940001010EFB
:1001F000626F0DD0040E0201615D09E102016251DE
:10020000E8B08B86E8A08B960001010E626F70D07B
:100210000001646B60DF0001010E626F69D029ECA0
:1002200002F0000907E0CCC021F2CDC022F20001AB
:10023000030E626F5DD00001010E646F4CDF0001A0
:10024000010E626F55D000016651E824020F0001D3
:10025000626F00016651E8240201216F66C0DFFF72
:10026000DF50000827E20001655104E100011D0E86
:10027000656F02D00001650700016551E96EEA6A09
:10028000D890E936EA36670EE926000EEA22EECF6C
:1002900010F0EFCF11F0EA6ADF34FE0BEA36E96EB8
:1002A000200EE926020EEA2210C0EEFF11C0EDFF7B
:1002B000DF06D6D710DF1CD09388290EC26EC16A24
:1002C0003E0EC06EC08E0BDFDE52F3CFDEFFF4CFEA
:1002D000DDFFDD52010EDBCF21F2020EDBCF22F279
:1002E0000001030E626F04D0FF0002D0000000D0B6
:1002F0000001625124E00001E451E51102E1000E29
:1003000008D0E4C0E9FFE5C0EAFFEF50800B01E050
:10031000010E000914E162C0E6FF200EE66E020E37
:10032000E66E010EE66E010EE66E2FEC08F0106E22
:10033000050EE15E1050F3CFE4F0F4CFE5F0400E8F
:10034000E66E600EE66E020EE66EE66A010EE66E80
:100350002FEC08F0106E050EE15E1050F3CFE2F0C6
:10036000F4CFE3F0030EE15C02E2E16AE552E16EF4
:10037000E552E7CFD9FF12000001E651E71104E191
:10038000100EE66F270EE76FE607000EE75B64A22C
:1003900008D0E651E71130E18B708B50010B13E16F
:1003A00028D00001A35102E18B9023D0A30502E1E4
:1003B0008B8009D0020EA35D02E18B801AD0040E5F
:1003C000A35D03E18B908B821200100EA35D06E10A
:1003D0000001E651E71110E18B700BD0200EA35DF8
:1003E0000BE10001E651E71107E18B708B50010B27
:1003F00002E08B9212008B8212008050080B01E009
:10040000010E0001605D07E08050080B01E0010E65
:10041000606F80A6010C000C8050080B01E0010EFB
:100420000001615D07E08050080B01E0010E616F83
:1004300080A6010C000CD9CFE6FFE1CFD9FFACA21A
:10044000FED7FE0EDB50AD6EE552E7CFD9FF1200AE
:1004500012000001CC6BCD6B010CD9CFE6FFE1CFD0
:10046000D9FF030EE126CCC010F0CDC011F0D8901A
:1004700011321032E804FBE189D8D9CFE9FFDACF95
:10048000EAFFEE52EF50100B08E1010EDB9ADB9C05
:10049000DB9E00012B0ECE6F10D0010EDB8ADB8CB1
:1004A000DB8E00012D0ECE6F76D8FF0E101A111ABA
:1004B0006DD8DF2A010E01E3DB2A6DD80A0E110286
:1004C000F3CF11F01002F3CF10F0F4501126040E08
:1004D000D89011321032E804FBE158D8040EF36EC4
:1004E000020EF3CFDBFFDB50000830E254D80A0ED7
:1004F0000B6E0C6A10C006F011C007F0DFEC03F0C1
:1005000002C010F003C011F00F0E02143009E66EA5
:10051000020EDB50EA6ACE0FE96E000EEA22E552C7
:10052000E750EF6ED9CFE9FFDACFEAFF0A0E0B6E84
:100530000C6AEECF06F0EDCF07F0DFEC03F006C05B
:10054000EEFF07C0EDFF020EDB06CDD7300E000137
:10055000CF5D07E1200ECF6F300ED05D02E1200E9F
:10056000D06FD2C0D3F02E0ED26FF80ED46F430EE0
:10057000D56F0D0ED66FD76B030EE15C02E2E16A18
:10058000E552E16EE552E7CFD9FF120010C0DEFF61
:1005900011C0DDFF1200DECF10F0DDCF11F0120030
:1005A0001201100100000008D8040C000000010234
:1005B000000109022000010100C03209040000020C
:1005C000000000000705010240000107058102400C
:1005D00000010403090434034D0069006300720044
:1005E0006F0063006800690070002000540065001F
:1005F000630068006E006F006C006F006700790098
:10060000200049006E0063002E0038034D00690091
:10061000630072006F0063006800690070002000D2
:1006200043007500730074006F006D0020005500DA
:10063000530042002000440065007600690063001A
:0A0640006500B205D205D6050A06D2
:06064A0049D81100D8CFD1
:10065000E4FFE0CFE4FFE46E42D8E550E5CFE0FFF1
:10066000E5CFD8FF100005D84BEC04F039EC00F0D2
:10067000FBD70F0EC1120FEC04F01CEF00F01200BC
:10068000120012001200120012001E0EE66E010E81
:10069000E66EE3EC07F0E552E552400EE66E600EC2
:1006A000E66E020EE66EE66A010EE66E2FEC08F0CC
:1006B000106E050EE15E1050F3CFE2F0F4CFE3F0E0
:1006C000120064840001080EE86F070EE96FE80766
:1006D000000EE95BE851E911FAE164941200DACF07
:0C06E000E4FFE652E552E5CFDAFF12001D
:0406EC002A0EF66E6E
:1006F000000EF76E000EF86E00010900F550DD6F78
:100700000900F550DE6F03E1DD6701D03DD009003F
:10071000F550D86F0900F550D96F0900F550DA6F20
:1007200009000900F550E96E0900F550EA6E09006C
:1007300009000900F550DB6F0900F550DC6F090076
:100740000900F6CFDFF0F7CFE0F0F8CFE1F0D8C046
:10075000F6FFD9C0F7FFDAC0F8FF0001DB5302E172
:10076000DC5307E00900F550EE6EDB07F8E2DC072A
:10077000F9D7DFC0F6FFE0C0F7FFE1C0F8FF0001E6
:0A078000DD07000EDE5BBFD712009C
:06078A00FE0EE3CFE9FFC3
:10079000FF0EE3CFEAFFE9CFF3FFEACFF4FFFB0E52
:1007A000E35003E1FC0EE35009E0FB0EE30602E236
:0E07B000FC0EE306FD0EE350EE6EF1D71200D4
:0207BE00036ACC
:1007C000026A100EE76ED8900636073602360336F8
:1007D0000B50025C0C50035805E30B50025E0C50AA
:0A07E000035A062AE72EF0D7120094
:0607EA0000EE00F00F0E0E
:0807F000EE6AEA62FDD7120077
:0607F800000000000000FB
:0608000057EF09F01200A1
:020806001200DE
:0608080025EF03F01200D1
:0608180027EF03F01200BF
:02081E00D9EC13
:1008200008F00F015F6B626A9F0E5B6FFB0E606EDC
:10083000648C649C5C6BBDEC08F0DF6ADF50106E6A
:10084000116A040E105C000E115810E2DF50040D06
:10085000F3CFE9FFF4CFEAFF000EE926020EEA2209
:10086000EE6AEE6AEE6AEE6ADF2AE8D70F01160E2C
:10087000536F62A604D0030E83EC08F0FAD7000190
:10088000B66BBB6B6498040EAE6F020EAF6FA46BB9
:10089000A36BDCEF08F0D9EC08F00001A3510BE1E9
:1008A000646A606A64B602D06486FCD70001010EF7
:1008B000A36F140E616EA30508E164BA06D0626AE4
:1008C000606A60806088020EA36F6250040B04E0CF
:1008D0006050040B01E066D864B24AD06250010B4C
:1008E00011E06050010B0EE09ADF0001040EA36FCF
:1008F0000201100E026F020E036F080E016F006BF3
:100900008C0E00136250100B04E06050100B01E0DD
:1009100043D86250400B08E06050400B05E041ECCA
:1009200003F0060E83EC08F06250200B04E06050E8
:10093000200B01E01FD86250020B07E06050020B51
:1009400004E042EC03F00F015F6B040E0001A35DB5
:100950000FE360A60DD0DF6A040EDF5C09E262A639
:1009600007D063CFC3F0030ECEDB26D8DF2AF4D73F
:10097000DCEF08F00F0153A10CD0ECDBEF50800846
:1009800007E1CBDBEF50840803E1E4DB8C0EEF6E74
:100990005391060E83EF08F06084040EB4DB64828A
:1009A0003FEF03F0649240EC03F0609462A403D044
:1009B000020EA9DBFBD71200FD0E0001C31518E1E2
:1009C0007E0EC315E8407F0B040DF3CFA6F0F4CFE5
:1009D000A7F0000EA627020EA723A6C0A8F0A7C066
:1009E000A9F02CEC09F002E1FEEF04F00FEF05F0A6
:1009F000FD0EC315040801E11AD812008EDBEF507A
:100A0000800B02E08ADBEF6A0001B26BB36BB76B5D
:100A1000B86BB66B84D843EC03F0AEEF06F0020E71
:100A20000001B35D02E138EF07F044EF05F0C1DBF0
:100A300074DBEF50400B01E0010EDF6E080E000189
:100A4000A35D0CE112C25CFF0F015C51000803E2E0
:100A50000001100E02D00001040EA36FB30512E1D5
:100A6000EDDBB4D9020E0001B25D03E156DB840E6A
:100A700007D0DF5003E151DBC80E02D04EDB880EF9
:100A8000EF6E01D001D898D3D4DB030EE126020E1D
:100A90000001B35D2BE16450100B28E05BDBEE52EC
:100AA000EF50106E116A080E101820E111501EE16F
:100AB000D3DB1CE1ADDBEF50800B18E1A9DBADDB34
:100AC000DF6ADF50106E116A080E105C000E1158BC
:100AD00020E2DF5073DBDF50EA6A100FE96E020E8E
:100AE000EA22E552E750EF6EDF2AEBD7B36B9BDBD0
:100AF000EF6A000EAE19106E010E10C0DBFF020E81
:100B0000AFC0DBFF010EDBCFE9FF020EDBCFEAFF58
:100B1000EF6A030EE15C02E2E16AE55207D30201EB
:100B20001051600BE842E842E842E842E84200091E
:100B300001E0120011510C0A43E00B0A3FE00C0ADD
:100B400031E0010A22E00B0A1EE0020A1CE0030A5F
:100B500018E0080A10E0010A0CE00F0A08E0030A96
:100B600001E012000001B68F080EA36F12003EEFE5
:100B700006F091EF07F00001A40EB46F000EB56F00
:100B80000CD079EF06F0E1EF05F014510001B46FDD
:100B9000B56BA50EB427000EB523B681010EB76F55
:100BA000B68F12000001B68F02011451EA6AA50F38
:100BB000E96E000EEA2212C2EFFF120044EF03F0CA
:100BC000120037DB050EE1260201120510E110517B
:100BD0001F0B00090CE10001B68F030E0201115D2D
:100BE00004E10001010EC26F02D00001C26B0201DC
:100BF00012513EE110511F0B02083AE114510F0B44
:100C0000000936E00001B68F040EDB6A020EF36EB7
:100C1000040EDBCFF4FFF350F45C2AE2D7DA01E0F4
:100C2000010E9DDA030E115D03E182DA840E1CD001
:100C300014510F0B116A530F106E0F0E1122020E7A
:100C400010C0DBFF030E11C0DBFF020EDBCFE9FF9C
:100C5000030EDBCFEAFFEE90ED5214AF03D068DA5B
:100C6000400E02D065DAC80EEF6E040EDB2ACED736
:100C7000050EE15C02E2E16AE55258D2800E020103
:100C8000105D36E10001C00EB66F02011351030A78
:100C90001EE0010A09E0030A29E10001A00EB46F79
:100CA000050EB56F120E1FD0A8DA420EF626060EFC
:100CB00095DA020E0001F76AB425F66EB551F722F7
:100CC0000900F5CFB7F00A00F5CFB8F0120095DAB9
:100CD000440EF626060E82DAB4C0F6FFB5C0F7FF62
:100CE0000800F5500001B76FB86B12000001B66B39
:100CF000120018DA0201186B196B10511F0B020A4F
:100D000011E0030A0CE0010A19E10001B68F0201AB
:100D100018810001C20512E1020118830FD0000101
:100D2000B68F0CD00001B68F51DA01E0010E17DA50
:100D3000FFD9EF50040B02E0010E186F0001B6AFAF
:100D400007D0180EB46F020EB56FB681020EB76FE2
:100D5000020EE15C02E2E16AE552E8D1649800012A
:100D6000B6BF07D0BBAF02D092DA28D05CDA840ECF
:100D700026D0BBBF2AD0020110AF23D00001B7514B
:100D80000201165D0001B8510201175904E216C2B2
:100D9000B7F017C2B8F01AD80001010EB36FACD982
:100DA000D3D9800EEF6ED6D9EE52080EEF6ED2D99F
:100DB00034DAD0D9800EEF6E41DAAFD9C80EEF6EBB
:100DC0001200000164DAC80EEF6E1200ABD9000108
:100DD000080EB75D000EB8590DE2B7C0DEFFB8C00F
:100DE000DDFFB25102E1010E03D0B20506E1020EB1
:100DF000B26F03D0080EDE6EDD6A8FD9EF928DD907
:100E0000EF908BD9010EDB50EF1287D9EE52DFCF76
:100E1000EFFF000EDB50B75F010EDB50B85B180E22
:100E2000C06F020EC16FB6B10FD0EED91BE0B4C0D7
:100E3000F6FFB5C0F7FFB42B000EB5230800F55040
:100E4000A5D9F3E2DB06F1D7DFD90CE0B4C0E9FFA6
:100E5000B5C0EAFFB42B000EB523EF5097D9F4E2EA
:100E6000DB06F2D7020EE15C02E2E16AE5525ED1F6
:100E700059D970D9EE52EFCFDFFFDFCF10F010500D
:100E80000001BC5D000EBD5903E2BCC0DFFF09D00C
:100E9000DF50106E116AE850BC5DBC6F1150BD5937
:100EA000BD6F010EDB6ADF50F36E010EDBCFF4FF86
:100EB000F350F45C10E2010EDB5080D9B9C0E9FFB9
:100EC000BAC0EAFFB92B000EBA23E552E750EF6E25
:100ED000010EDB2AE8D7000ED880BC55000EBD55A8
:100EE0000CE2C9D937D9EF50400B03E191D9C80EB4
:100EF00002D08ED9880EEF6E0ED08AD98ED9BE510F
:100F0000BF1107E005D0BFC0FAFF0001BE51F96E66
:100F1000FADF0001BB9F020EE15C02E2E16AE552EA
:100F200005D10001B68F29D9010EE66EE66AE66AA0
:100F3000A50EE66E000E97D912C2A4F0020112515E
:100F400004E10001100EA36F12000001200EA36F38
:100F500045EF03F0E7D8000EDE6E020EDD6EFD0EEB
:100F6000DB50040DF3CF12F0FE0EDB50080DF350F2
:100F70001224106E116A020E0F0B05E0D890113288
:100F80001032E806FBE1D89010361136D8901036B2
:100F9000113674D91050EE261150ED22C9D8EF9EAB
:100FA000FD0EDB5002E14ED901D051D9EA22DECF4D
:100FB000EEFFDDCFEDFFBCD8EF8C020EE15C02E26C
:100FC000E16AE552B3D0AED8FE0EDB50116A530F82
:100FD000106E0F0E112210C0DEFF11C0DDFFFD0EDE
:100FE000DB50E66EA5D8E552E750EE6EED6AFD0ED9
:100FF000DBA402D0E66AFAD8FD0EDBA203D0010E14
:10100000E66EF4D8020EE15C02E2E16AE5528ED0AF
:1010100089D8FE0EDB5004E106D9840EEF6E19D09C
:10102000FD0EDBCFE6FFFE0EDB50E824E552E724A1
:10103000040DF3CF10F0F4CF11F0000E1026020EC5
:10104000112210C0DEFF11C0DDFF840E71D8E85000
:10105000EF12020EE15C02E2E16AE55267D062D86B
:10106000FD0EDB5002E0F3D801D0ECD8EA22EECF3F
:10107000DEFFEDCFDDFF5CD8EF7C5AD813D9FB0E35
:10108000DBCFEEFFFC0EDBCFEDFF52D8EE52FA0EB7
:10109000DBCFEFFF400E4CD8E850EF16880E48D853
:1010A000E850EF12FD0EDB5002E0D1D801D0CAD8D3
:1010B000EA22DECF10F0DDCF11F010C0F3FF11C037
:1010C000F4FF020EE15C02E2E16AE5522FD0B1D8F2
:1010D000010EF36EFC0EDB5004E0D890F336E80608
:1010E000FCE1F31C106EFD0EDBCFE9FFFE0EDBCF43
:1010F000EAFF1050EF16C7D08BD8EE52080EEF6EF5
:1011000087D852EF09F0E66E620EE66E0F0EE66EBD
:10111000DEDFE552E552E5521200AEC0E9FFAFC096
:10112000EAFF120086D8020EE1261200E16EABD073
:10113000DECFE9FFDDCFEAFF1200FE0EEA6ADB3404
:10114000FE0BEA36E96E1200100EEE6E020EED6E28
:1011500008EF09F0A6C0E9FFA7C0EAFF1200126E6F
:1011600014510F0BE8241224040DF4CF11F086D88B
:10117000F350EE261150ED221200000EE66EE66AE4
:10118000E66A540EE66E0F0E33EF09F0E66EC0C04D
:10119000E9FFC1C0EAFFC02B000EC123E552E750B2
:1011A000EF6EDF06010E1200180EEE6E020EED6EEF
:1011B00012003FD8E6521200E55265D0EA6A180FD5
:1011C000E96E020EEA22EF50E66E1200000EDE6EAD
:1011D000020EDD6E02011451800B1200F72209008D
:1011E000F5CFB4F00A00F5CFB5F01200FE0EDBCF5C
:1011F000E6FFB0DEE552E55212001251F66EF76AD4
:10120000D890F636F736120039D8EE50ED101200AD
:10121000A8C0E9FFA9C0EAFF120044D8100EEE6E84
:10122000020EED6E120068DF8FDF8C0EEF6E8DEF19
:1012300008F0D9CFE6FFE1CFD9FF12006EDF32D838
:10124000D4EF08F07ADFAA0EE926000E120075DF4F
:10125000AE0EE926000E12007DDFEF503C0BE84297
:10126000E8420D081200E66EC5EC03F0106E050EA4
:10127000E15E1050120040DFD4EF08F0D9CFE9FF53
:10128000DACFEAFF1200E552E7CFD9FF1200020ED3
:10129000B36F43DFEE52EF6A40DFC80EEF6EEBDF55
:0E12A00008EF09F0020EE926000EEA22120005
:0212AE0011EE3F
:1012B00000F021EE00F0F86A0F9C76EC03F003ECEE
:0A12C00004F033EC03F0FBD712003A
:020000040030CA
:0100000000FF
:0100010032CC
:01000200619C
:010003001EDE
:0100050000FA
:010006008178
:0100080003F4
:01000900C036
:01000A0003F2
:01000B00E014
:01000C0003F0
:01000D0040B2
:00000001FF
