:020000040000fa
:080000000414040000000000dc
:020000040000fa
:1004000000000000000000000000000000000000ec
:1004100000000000000000000000000000000000dc
:1004200000000000000000000000000000000000cc
:1004300000000000000000000000000000000000bc
:10280000ffffff00ffffff000fd32000807f2400a9
:1028100000018800000000000a0007001100070006
:10282000000020000000e000020032000000020072
:1028300000000000e2270200000000000040da0073
:102840000000fe004440a900401520000000e00008
:102850000300320000002000a00188004440a800ce
:10286000000006000085220001002000160037004d
:1028700062004000e0804800910188009001ba00a9
:1028800062004000e0804800910188009002ba0098
:1028900062004000e08048000002eb006028e10098
:1028a00005003a008301e9000700330003800900b6
:1028b0000059eb00040037006128e10001003200fc
:1028c0000082eb0005000700910188001001ba00aa
:1028d0000200e000e6ff3a000000050091018800d8
:1028e0008002780062004000e08048003559ba005c
:1028f0008301e900080032002559ba008301e9008c
:10290000050032000400e000f4ff320015d9ba00df
:102910008301e900f1ff3a000000060003f0a20085
:10292000889fbe008a9fbe008c1f78001701070099
:102930001e0133006450e1004f0032006420e100ca
:102940005200320003826c0007003b000905d000f2
:102950000306d000820f54000c065d00020039000f
:102960000200320089017800030678008582550054
:1029700004003d000003fd008103fd008502ea0024
:102980008b854200840f720002003b006000100043
:10299000e08018006011b8000005eb007a28e10023
:1029a0000a00390006007800c75ddd00f707b200b5
:1029b000878075002d003700828171000a01780040
:1029c000610560008180d1000080d3008502e900ac
:1029d000f9ff3b00060440008784480002003b00ea
:1029e00060041400e0841c000988a3000700320082
:1029f0008a81710082817100610164008904d100c3
:102a00000884d3008b05e800170037000978a3007d
:102a100013003a000b00e000130034008b05e900be
:102a20000804440089844c000a4474000978a30017
:102a30000d003a000b00e000070034008b05e900b0
:102a40000804440089844c0001003a000b00200077
:102a50000978a300f7ff32000001eb000200370005
:102a6000828171000a017800e00007000cf0a700e5
:102a700001f0a000d60037006420e10002003a0017
:102a8000838f6c00d60033000801be000200be0038
:102a9000cf00370014002000fa003700889fbe00e6
:102aa0008a9fbe00010578000100e00004003500a7
:102ab00008003c000000e000200032000500370064
:102ac00060001000e080180002003b0001f02c00c4
:102ad0001a0037000004be006011b8006b09200026
:102ae0000982cf00020039000882cf000441b00003
:102af000694252000e00320008003b0082817100e2
:102b0000610164008904d1000884d3008b05e800ca
:102b10000442e800f9ff3a000500370008044400c9
:102b200089844c008b05e9000442e900fbff3a0070
:102b3000ae0007000af0a70001f0a0004f05be009c
:102b40004f04be0000000600889fbe008a9fbe00a2
:102b50008c1f78008d0007009400330003866c0002
:102b60006450e100240032006420e10027003200bc
:102b70006150e100220032006120e10021003200ba
:102b80008b854200eb07b1000134b800003ab80071
:102b90000804420089844a00013ab8000030b800b5
:102ba0008880400009014a00040033000000400012
:102bb00081804800020149008b05e900c909dd0058
:102bc000830170000100320013002000c814de00f1
:102bd0004814dd004709de001200b200c808de001c
:102be000088470008100070001f0a1000cf0a7002c
:102bf00001f0a000760037006120e100780032008b
:102c00000801be000200be00f7ff37006150e1007e
:102c1000fcff3a0072003700889fbe008a9fbe000a
:102c20008c1f7800590007006000330003866c0099
:102c30006450e1002e0032006420e10033003200d5
:102c40006150e1002f0032006120e10031003200cc
:102c500085855500eb07b00009002000080420001e
:102c6000050037000804440089844c000a00310044
:102c70000603430087834b000001530081815b0002
:102c8000f8ff33000203be000800a000080444005f
:102c900089844c00f6ff3900c639dd0083017300da
:102ca00001003200130020008904d1000884d30001
:102cb0000998a300050032000800a7000300a00047
:102cc0008904d1000884d3008b05e8008904d10071
:102cd0000884d3000001eb000281d200430007000a
:102ce00001f0a1000cf0a70001f0a00038003700af
:102cf0006420e1003a0032000801be000200be007c
:102d0000f7ff37006120e100350032006000b800b5
:102d1000f3ff37000000200001f82700f0ff370024
:102d20000001be00720007000470a70003f0a100bc
:102d300003f8a30013003a006509b1001000320047
:102d4000090035006928e100020035000100280073
:102d50000000050000004000818048008502e90075
:102d6000fcff3a0000000600f88f42000500350025
:102d70008100d1000080d3008502e800fcff3a000a
:102d8000000006008000eb00000005000004be000b
:102d9000570007000003be000405be000200be008d
:102da00053000700844f7500000006000200be00bb
:102db0006450e100050036006420e10002003600a6
:102dc0000968a30001003a000800be000160a000ed
:102dd0004f0678004f05be004f04be0000000600fd
:102de000f0ff2f00f1ff2700f9ff370081002000de
:102df000618055000b003d000b00200061fe2f009c
:102e00000100e1001d003400828171006101640055
:102e10008904d1000884d3000000e800faff3a00da
:102e20007100200061006400030070000200600077
:102e30000900320061044400e0844c000988a500c8
:102e4000050032008b05e8006808e10002003a0046
:102e50008904d1000884d300f20f20000258e10059
:102e600005003d00c75ddd00f907b20089807500ef
:102e700008007800000006000bf827008b0078009f
:102e800000000500889fbe008a9fbe00841f780056
:102e9000beff07004f00780011003300f0ff2f0045
:102ea000838f6c0006003b00040565000a00a70044
:102eb0000800370009f0a6001000200008003700c5
:102ec000820f5400838f5c00030039001000200043
:102ed00001003e000000200009f0a7000000ea0009
:102ee0004f05be004f04be000000e00000000600d9
:102ef000c70ade00f107b200f50fb2000800320089
:102f0000e1cf4200020032000170a0002400050061
:102f1000810f700001003200040805004400050024
:102f2000810f700002003a00140005008502e900dc
:102f30000000400081c04800fcff3b000170a00081
:042f40002400050064
:020000040000fa
:020000040005f5
:0457f400ffff0000b3
:020000040000fa
:020000040005f5
:0457f800be130000dc
:020000040000fa
:020000040005f5
:0457fc007f360000f4
:020000040000fa
:102f44001201000010010000000000000008000051
:102f5400d80400000c000000000000000102000082
:102f6400000100000902000020000000010100002f
:102f740000c000003209000004000000000200004c
:102f8400000000000000000007050000010200002e
:102f9400400000000107000005810000024000001d
:102fa40000010000040300000904000034030000d1
:102fb4004d00000069000000630000007200000082
:102fc4006f0000006300000068000000690000005a
:102fd40070000000200000005400000065000000a4
:102fe40063000000680000006e0000006f00000035
:102ff4006c0000006f000000670000007900000012
:1030040020000000490000006e0000006300000082
:103014002e000000380300004d000000690000008d
:1030240063000000720000006f00000063000000f5
:10303400680000006900000070000000200000002b
:1030440043000000750000007300000074000000dd
:103054006f0000006d00000020000000550000001b
:103064005300000042000000200000004400000063
:1030740065000000760000006900000063000000a5
:1030840065000000b4970000d4970000d8970000b2
:043094000c98000094
:020000040000fa
:103098000200fa00f00f200070248800f00f2000d2
:1030a80050248800f009200080248800b00f2000f8
:1030b800602488008804a80000a020004800de00e2
:1030c800c02488009424a8009424a9000000eb00e0
:1030d800b02488000040eb00004f7800070037005c
:1030e8001e80fb00c200dd0000a02000008140001f
:1030f8006000b8000089be001e4fe80030c0b30071
:103108009e4f1000f6ff3600d000200050258800a2
:1031180003003700a048200031c0b300a70407000f
:103128008ac4bf00684060000004e000f9ff3a006c
:103138000040eb0014e8b700818120000040eb005c
:10314800a040980094a4a90040a020000041880055
:103158000040eb0011e8b7000040eb0010e8b700b2
:103168000080fa00000006000200fa0010c8bf0044
:103178000004e00010003a000000eb00a0248800e2
:103188000000eb0060248800010037009404a800c8
:1031980094c4bf00614060000004e000fbff3200ff
:1031a80010c0b30010e8b7000000eb00302588001d
:1031b800000120004025880010c8bf00e14f5000e2
:1031c80008003a00f00f2000502488000000eb00af
:1031d800602488008c04a8008c84a80020c0b30058
:1031e80010e8b70080c4bf00704060000004e00031
:1031f8000500320082c4bf00704060000004e00097
:10320800010032008200070088c4bf0062406000ed
:103218000004e0005c003a008ac4bf00614060001e
:103228000004e000150032008cc4bf00614060005b
:103238000004e0001100320095ff070040c0b30011
:1032480010e8b700008020001050880080c0b3004c
:1032580000eab70011a020009140780030c0b30008
:1032680000c0600001eab70011a02000914078007a
:10327800c0c8b30000c0700001eab7008ac4bf002c
:10328800704060000004e000050032008cc4bf00fc
:10329800704060000004e0000100320054000700a4
:1032a8008ac4bf00644060000004e00008003200e7
:1032b8008cc4bf00644060000004e00004003200d9
:1032c80050070700a048200021c0b3003b040700b6
:1032d8008ac4bf0001c8b300014060000004e000d8
:1032e800060032008cc4bf0001c8b3000140600072
:1032f8000004e00001003200250007008ac4bf0076
:10330800624060000004e000070032008cc4bf0087
:10331800624060000004e000030032003c07070040
:10332800f00f20007024880010c8bf00e34f500041
:10333800150036008cc4bf00684060000004e0003f
:10334800110032000040eb00004f78000b003700fe
:103358008ac4bf00684060000004e0000a00320030
:103368009024800034e8b700a048200031c0b300a2
:10337800120407002e0007001e4fe80030c0b300fb
:103388009e4f1000f2ff36000080fa000000060091
:103398000000fa00aac4bf00624060000004e00018
:1033a8000e003200304180009040900000c8b30009
:1033b80080cf500008003a00004180009040900003
:1033c80040c8b30080cf500003003a00314180006c
:1033d800c0c8b30090409800aa24a900a0482000c3
:1033e80021c0b300f50307000080fa0000000600c2
:1033f8000000fa008284a800a048200041c0b30061
:10340800ee030700f90607000080fa000000060036
:103418000000fa00f80607008284a900004820008e
:1034280041c0b300e50307000080fa000000060071
:103438000000fa0034c8bf008080fb00b0ff2f00f6
:10344800008060000000e0001b003a0034c8bf00a4
:103458008080fb00c00f2000008060004280de00fa
:103468004200dd008000780000a0200000804000bd
:10347800304188003041800040418800818220002e
:103488008082200010407800804878003041800019
:1034980010409000c2c3b3008240600040c3b30034
:1034a80080cf500002003a000c00070009003700e6
:1034b800210007000700370034c8bf008080fb00e8
:1034c800b0ff2f0000806000e80f500001003a00b4
:1034d800220007000080fa00000006000000fa0041
:1034e800004180009040900000c8b30000c0600018
:1034f8000004e00003003200014180000040eb00be
:10350800904098000040eb002ee8b7000040eb0028
:103518002fe8b7000000eb00b04088000040eb0047
:1035280014e8b7009a000700bc060700c8010700a6
:103538000080fa00000006000000fa002fc8bf0053
:10354800e24f500002003a007702070001003700fe
:10355800370007000080fa00000006000200fa00a9
:1035680000418000104090000080fb004600de0013
:1035780061406000004f7800018220000082200036
:10358800104078008048780010c8bf00e84f50000d
:103598000c003a0000802000204090000080fb00d2
:1035a800b0248800b02480000000e000030032004e
:1035b80000c1b30010e8b7000200370040c0b300f4
:1035c80010e8b7002fc8bf00e14f500015003a00bf
:1035d8000041800081802000110098000b02070044
:1035e8002ec8bf00e24f500004003a00014180009d
:1035f80040c8b300904098000b0037001e04e0005c
:1036080004003a000141800080ccb300904098004b
:10361800050037000141800080c8b3009040980041
:1036280001003700020007000080fa0000000600d1
:103638000400fa002fc8bf00e24f50002e003a00e5
:1036480094c4bf000042b2000004e0002a00320027
:103658003041800010407800e84f500026003a00c2
:103668003041800010409000c2c3b3008240600027
:1036780040c3b30080cf50001f003a004041800093
:103688009040900000c8b30000c060000004e00053
:1036980019003a0040418000018020001100980084
:1036a8000040eb00204798000f0037002e409000a4
:1036b8000080fb008000780000802000008140002e
:1036c8002e4090000080fb00800078008080200061
:1036d8000080400010407800004978002e4090009b
:1036e8000040e800204798002e409000e74f500027
:1036f800eeff3600130037000040eb002fe8b7005c
:103708004141800080c0b30080487800414180007a
:10371800008020009000980041418000c0c8b3009c
:1037280090409800014180000040eb0090409800d4
:1037380000418000000f78009e0078000040eb00f8
:1037480090409800808120009000900000082000a0
:10375800008060000000e0000b0032008081200043
:10376800300090000000e00003003200808120005b
:1037780030009000000001008181200011009000bd
:103788000070a100900098000080fa000000060078
:103798000400fa0000802000104078000046b200c3
:1037a8000004e00043003a00008020001040900030
:1037b8000080fb006101b900028fbe00b00020004c
:1037c800010020001e01be00800f5100818f5900aa
:1037d80038003e001e00be00006001001a003700dd
:1037e8001b0037003300370019003700310037005d
:1037f80006003700090037002d0037000b0037009e
:1038080008003700140037001f00370014e8a8002c
:1038180080c0b30010e8b700260037008a00070010
:10382800240037000d020700220037001081200015
:10383800904088001408a80010c0b30016e8b7002c
:1038480014e8a8001b003700ba0007001900370069
:103858001a00070017003700008020004040900041
:103868000080fb008000780040822000008040003b
:10387800904088001408a80010c0b30016e8b700ec
:1038880014e8a8000b00370014e8a8000080200006
:10389800404090000081fb0000802000a040900084
:1038a80040822000000041000148780001003700f4
:1038b800dd0507000080fa00000006000600fa0097
:1038c8000080200020409000e14f50000f003a0097
:1038d80000802000104078007f4060000004e00075
:1038e8000a003a0014e8a800008020001040900068
:1038f800e34f500003003a00100020009041880078
:10390800020037000000eb00904188000080200092
:10391800204090000004e00049003a0000802000a8
:10392800104078007f406000e24f500044003a00a9
:1039380000802000404090006f4060000004e000dc
:103948003f00320014e8a8000040eb00004f780068
:103958003800370000a020002007980000802000d1
:10396800404090006f4060000080fb000000400075
:103978008000780000802000404090000080fb001c
:103988004700de000080fb00008040004200dd00b0
:10399800800078002e009000010040002007980069
:1039a8000080200010409000e34f500004003a00cf
:1039b800ae00900040c8b300904098001c0037004b
:1039c80000802000404090006f4060000080fb00b5
:1039d8000000400080007800a04a200000804000dd
:1039e800100798001e00900090007800d0ff2f006c
:1039f800808060001e009000010878000080200090
:103a0800c040900000c8b30000c060000004e0009f
:103a180004003200ae00900000c4b300904098004b
:103a280003003700ae00900080ccb30090409800af
:103a38001e4fe80010c0b3009e4f1000c5ff3600af
:103a48000080fa00000006000200fa000080200052
:103a58009040780000c8b30080cf500033003a008f
:103a680000ccb30014e8b70000802000304090007c
:103a78000080fb00000f78001e007800e20f500065
:103a88000c0032001e007800e30f500017003200cf
:103a98001e007800e10f50000100320021003700bd
:103aa800207a29009040880020012000b04088003a
:103ab8001e00370000802000204090000080fb009e
:103ac8000000400080007800408429000080400009
:103ad8001000780090408800904080000080e80046
:103ae80010007800b04088001000370000802000e7
:103af800204090000080fb0000004000800078001b
:103b08006084290000804000100078009040880000
:103b180090408000104078000080fb00b040880092
:103b2800020037000040eb0014e8b7000080fa00fc
:103b3800000006000400fa000040eb0008e8b700a7
:103b48000040eb0009e8b7000080200090407800b2
:103b58007fc060000080fb00100798001e009000e6
:103b6800e10f5000120032009e009000e28f5000da
:103b7800110032001e0090000000e0000100320039
:103b88002700370014e8a80008c8bf000004a000f8
:103b980008e8b70090418000e10f500020003a008b
:103ba80008c8bf000014a00008e8b7001c003700d0
:103bb80014e8a8001a00370014e8a80000a02000a4
:103bc800000f780000802000404090006f406000a7
:103bd8000080fb000000400080007800008020008a
:103be800404090000080fb004700de000080fb00a2
:103bf800008040004200dd001e0f40001e007800db
:103c0800104090000080fb004200de006100600070
:103c18000004e0000200320010c0b30008e8b7005a
:103c2800a040800001082000010060000000e000c2
:103c38000500320080802000904088001408a80009
:103c480020c0b30016e8b7000080fa0000000600a4
:103c58000000fa0094a4a900a040800001082000f8
:103c6800010060000000e00025003a00808120008b
:103c78009000900000082000008060000000e00034
:103c88001200320020c0b3002fe8b70001418000c5
:103c98000040eb00804878000141800080ccb300f0
:103ca800904098004141800080c0b300804878006f
:103cb80041418000808020009000980041418000b0
:103cc80080ccb300904098004e00370041418000fe
:103cd80080c0b30080487800414180000080200007
:103ce8009000980041418000c0c8b30090409800ff
:103cf8000141800040c8b30090409800410037005f
:103d08008081200090009000000820000080600062
:103d18000000e0003b003a0000802000904078005e
:103d280000c8b30000c060000004e00024003200b6
:103d380000802000b0009000b0408000808f5000cc
:103d4800030031000080200030009000b04088005f
:103d58002e00070010c0b3002fe8b70041418000d3
:103d680080c0b30080487800414180000080200076
:103d7800900098004141800000c8b300904098002e
:103d88003141800080c0b300804878003141800014
:103d980000802000900098003141800000c8b300e6
:103da8009040980001418000808020009000980099
:103db8000141800080ccb30090409800110037008a
:103dc80020c0b3002fe8b700014180000040eb009d
:103dd800804878000141800080ccb3009040980072
:103de8004141800080c0b300804878004141800094
:103df80080802000900098004141800080ccb30072
:103e0800904098000080fa00000006000200fa00c6
:103e1800b0408000e70f50000e003e00b040800028
:103e2800000f78002ec8bf000004e00003003a002d
:103e380010c0b3002ee8b700080037002ec8bf0036
:103e4800e14f500005003a0020c0b3002ee8b7004b
:103e58000200370080002000000f78000241800037
:103e680000418000904090001e40900000c070000b
:103e780010419800014180001e4078008048780079
:103e8800b14080001e00780000805000b0408800db
:103e98008080200080418800a04080006100600090
:103ea8000000e0001b003a000b0037008141800051
:103eb8009240800012407800804878000100e800b5
:103ec800804188000200e800904088001e007800c9
:103ed8000000e900000f78001e0078000000e000f4
:103ee800f2ff3a000e0037008141800092408000c6
:103ef80012407800804878000100e800804188007e
:103f08000200e800904088001e0078000000e900e8
:103f1800000f78001e0078000000e000f2ff3a0071
:103f28000080fa00000006000200fa00304180001c
:103f380090407800114798001e4090008080fb0058
:103f48008081200020009000808f500004003600ff
:103f5800808120002000900010479800070037005b
:103f680080812000a00090001e4090000080fb008f
:103f78008080500080812000210098000040eb00e4
:103f8800004f78000b003700808120001001780076
:103f98009e80fb0080802000008040001040780058
:103fa800004978008200e80080812000010878003c
:103fb8001e4fe8001e4090009e4f1000f2ff39008f
:103fc80080812000200090000000e00013003200f3
:103fd8004141800080c0b3008048780041418000a2
:103fe80080802000900098003041800010409000b0
:103ff8000044b2000004e00004003a00414180009f
:1040080080ccb300904098001200370041418000f6
:1040180080c8b300904098000e00370041418000ee
:1040280000802000900098008081200030009000df
:104038000000e00003003200808120003000900082
:104048000000010081812000110090000070a10093
:10405800900098000080fa00000006000000fa00b6
:1040680014e8a8000040eb0024e8b7000080200016
:104078002040900011e8b700008020002040900008
:104088000004e00003003a0000c1b30010e8b700e4
:104098000300370000c2b30010e8b700e5030700cb
:1040a8000080fa00000006000400fa00204798008b
:1040b8003147980000a02000000f78002e409000a3
:1040c8000080fb0000004000800078003e40900027
:1040d8000080fb00008040004200dd004200de005e
:1040e8004200dd001e0f40009e0078001140900045
:1040f8000070a100904098003e4090000004e0004d
:1041080007003a002e4090000080fb00800040002d
:10411800a0822000008040001e08780006003700ba
:104128002e4090000080fb008000400000822000ac
:10413800008040001e0878009e0078001140900022
:104148000060a000904098000080fa00000006007f
:104158000400fa0020479800314798002e4090004c
:104168000080fb000000400080007800a04a20008a
:1041780000804000000f78003e4090008080fb00e7
:104188001e007800010878003e4090000080fb0087
:104198004300de00610060000004e000030032001c
:1041a8008040eb002e409000bfff07003e4090008b
:1041b8000080fb004200de00610060000004e000b7
:1041c8000300320011c0b3002e409000b6ff070074
:1041d8000080fa00000006000400fa00204798005a
:1041e800314798002e4090000004e0000d003a008e
:1041f8004141800080c0b300804878004141800080
:10420800008020009000980041418000c0c8b300a1
:10421800904098000141800040c8b3009040980049
:10422800120037002e4090000080fb000000400084
:10423800800078003e4090000080fb000080400035
:104248004200dd008000780000a0200000804000cf
:10425800000f78001e0078009040900040c8b3001e
:1042680080c070001e007800114098000080fa009d
:10427800000006000800fa0020479800314798001f
:1042880022079800634798003e4090000004e00031
:10429800070032002e4090000080fb0080004000a4
:1042a8000082200000804000100f780006003700d0
:1042b8002e4090000080fb0080004000a08220007b
:1042c80000804000100f78001e0078009040900099
:1042d80000c4b30080c068001e0078001140980038
:1042e8001e007800ae009000110098001e007800b3
:1042f8006e419000024878001e007800104090003f
:1043080002c4b300824060001e007800114098008b
:104318001e0078009040900080c8b30080c07000f4
:104328001e007800114098003e4090000004e00014
:10433800100032002e4090000080fb00000040007a
:104348008000780000822000008040000001780092
:104358002e4090000080fb000000400080007800a4
:10436800008220000080400010407800004978005a
:104378000f0037002e4090000080fb000000400036
:1043880080007800a08220000080400000017800b2
:104398002e4090000080fb00000040008000780064
:1043a800a08220000080400010407800004978007a
:1043b8001e0078000080fa00000006000400fa00e1
:1043c800000f7800214798002e4090008080fb0065
:1043d800100020000100dd00804078001e007800f9
:1043e800014878000080fa00000006000000fa008a
:1043f80021168000000f2000008060002016880031
:1044080001168000000f2000008060000016880060
:10441800d8c2a800d8e2a800dac2bf000080fb001a
:104428004600de0061406000bce8b700dac2bf00a9
:104438000080fb004700de00bde8b7002602070049
:104448002ca3a90023c3bf007f40600023e3b7006b
:1044580000c0eb0024e3b70020c3bf007f4060002a
:1044680020e3b700513220009140780000ceb3001d
:1044780000c060000044a00025e3b700113220000e
:1044880091407800c0cfb30000c0600021e3b700be
:10449800213220009140780030ccb30000c0600089
:1044a80022e3b70021e3a8002d0007000040eb003d
:1044b800c0e8b7000080fa00000006000000fa001b
:1044c8005501070010c8bf00ff4f500022003600fa
:1044d80088c4bf00624060000004e00001003200b0
:1044e8001d0037004a000700c0c8bf00e14f500058
:1044f80019003a00fb0107000000e0001600320036
:10450800c1c8bf000080fb00024880008000400056
:10451800408c20000080400002087800c2c8bf001c
:10452800fd4f500003003e00c2c8bf000040e80035
:10453800c2e8b700c1c8bf00fd4f500003003a00f1
:104548000040eb00c1e8b70003003700c1c8bf0056
:104558000040e800c1e8b7000080fa00000006004b
:104568000000fa000040eb00c1e8b7000040eb0093
:10457800c2e8b7000080fa00000006000400fa0054
:104588001007980050002000401988002023a80038
:104598000000eb00000f7800030037001e007800d1
:1045a8000000e800000f78009e007800703e2000b0
:1045b800808f5000f9ff36002023a9000000eb008f
:1045c800000f7800030037001e0078000000e800a4
:1045d800000f78009e007800703e2000808f500009
:1045e800f9ff360020c3bf00614060000004e0000e
:1045f800fcff320000188000000f78001e009000b9
:104608001e0878001e0090000080fa0000000600d6
:104618000800fa00804880000000e0000600320030
:10462800804880009040900000c8b30000c060003f
:104638000004e000f6003a000040eb00bee8b700d6
:104648007ac8bf003ae8b7007bc8bf003be8b700ac
:104658007ac8bf000080fb003007980040032000a4
:10466800be009000808f500074003200400320008c
:10467800be009000808f500015003c001003200001
:10468800be009000808f50002900320010032000e7
:10469800be009000808f500004003c003e00900057
:1046a8000000e0001b003200bf003700200320009c
:1046b800be009000808f50003a0032003003200086
:1046c800be009000808f500056003200b6003700c0
:1046d80060032000be009000808f50006700320009
:1046e80060032000be009000808f50005d00350000
:1046f80070032000be009000808f500083003200bd
:10470800f00f2000be009000808f5000a4003200ff
:10471800a50037000040eb003ce8b70010c0b3002c
:104728003de8b70040c0b300bee8b7009f003700bf
:1047380010c0b300bee8b7007bc8bf000004e000ab
:1047480003003a00c442a900c462a90097003700d8
:104758007bc8bf00e14f500003003a00c442a900e3
:10476800c462a800910037007bc8bf00e24f500028
:1047780003003a00c442a800c462a9008b003700b5
:104788007bc8bf00e34f500003003a00c442a800b2
:10479800c462a800850037000040eb00bee8b700ff
:1047a800820037007bc8bf00e34f50000d003a007d
:1047b8007cc8bf0061406000614060004201dd00cc
:1047c800412c200091407800b0cfb30000c06000b9
:1047d80002407000c4e2b70010c0b300bee8b700e2
:1047e800720037007bc8bf00e44f50006f003a00ea
:1047f8007cc8bf0061406000614060004301dd008b
:10480800412c20009140780070cfb30000c06000b8
:1048180002407000c4e2b70010c0b300bee8b700a1
:10482800620037000040eb00c0e8b7004cff07000b
:1048380010c0b300bee8b7005c00370029010700cc
:104848000000e0005900320000c9bf003be8b70093
:1048580001c9bf003ce8b70030c0b300bee8b700ec
:104868005200370010c0b300c0e8b7003cff070093
:1048780010c0b300bee8b7004c003700c2c8bf0084
:104888000080fb000000400000c0e800bee8b70060
:10489800c2c8bf00004040003be8b700c2c8bf0024
:1048a800004f780015003700c1c8bf000004e000c1
:1048b80003003a00d0c1b300c1e8b70003003700d5
:1048c800c1c8bf000040e900c1e8b7001e81fb0075
:1048d800c1c8bf000080fb0080004000408c200061
:1048e800008040009001780082004100a0832000f1
:1048f80000804000030878001e4fe9001e04e00015
:10490800e9ff3a0016ff0700280037002ca3a9008a
:1049180023c3bf007f40600023e3b70000c0eb0063
:1049280024e3b70020c3bf007f40600020e3b70046
:10493800513220009140780000ceb30000c06000e2
:104948000044a00025e3b700113220009140780010
:10495800c0cfb30000c0600021e3b70021322000bf
:104968009140780030ccb30000c0600022e3b7006b
:1049780021e3a8006400470000ff07002e00900014
:10498800100798002e4090003be8b7003e4090008a
:104998003ce8b70030c0b300bee8b70003003700fa
:1049a8000000fe000100370000000000bec8bf0084
:1049b8000004e00010003200904880000000e00091
:1049c80006003200904880009040900000c8b30074
:1049d80000c060000004e00007003a00bec8bf0045
:1049e800a28320008041780011c0b30010c0b3003a
:1049f80020fe070090488800a287200003c4b30067
:104a08008040eb0010c0b3001afe07008048880001
:104a18000080fa00000006000000fa00d04580007f
:104a28000000e00002003a0000712200d045880032
:104a3800d04580000000e900d045880088c4bf0048
:104a4800624060000004e0001a003200d045800097
:104a58000000e00064003a00c4c2bf000004a200e5
:104a68006140600061406000614060006141600039
:104a7800412c200091407800e0cfb30000c06000d6
:104a880002407000c4e2b700c4c2bf0061406000c9
:104a98006140600000414000412c200091407800b6
:104aa800d0cfb30000c0600002407000c4e2b7007d
:104ab8004d00370010c8bf000004e00003003a00b2
:104ac800c402a900c422a9004700370010c8bf00cb
:104ad800e14f500003003a00c402a800c422a80015
:104ae8004100370010c8bf00e24f500003003a00f1
:104af800c402a800c422a9003b00370010c8bf00a8
:104b0800e44f500003003a00c402a900c422a800e0
:104b18003500370010c8bf00f04f500011003a00b0
:104b2800d04580000000e0002f003a00c4c2bf005a
:104b38000004a200614060006140600061406000c4
:104b480061416000412c200091407800e0cfb30023
:104b580000c0600002407000c4e2b700c422a9008f
:104b680021003700018120009140780000c2b30085
:104b780080cf50001c003a00d04580000000e000c3
:104b880019003a00c4c2bf000004a20061406000de
:104b9800614060006140600061416000412c20007c
:104ba80091407800e0cfb30000c060000240700080
:104bb800c4e2b700c4c2bf000004a20061406000a4
:104bc8006140600061406000614060000041400059
:104bd800412c200091407800d0cfb30000c0600085
:104be80002407000c4e2b7000080fa00000006002e
:104bf8000200fa00dac2bf000080fb004600de00b7
:104c0800614060008080fb00bcc8bf000080fb00e2
:104c1800808f50000c003200dac2bf000080fb0019
:104c28004600de0061406000bce8b700dac2bf00a1
:104c38000044b2000004e00003003a001000200025
:104c4800000f7800020037000000eb00000f78002a
:104c58001e0078000080fa00000006000200fa003a
:104c6800dac2bf000080fb004700de008080fb0046
:104c7800bdc8bf000080fb00808f50000d003200cf
:104c8800dac2bf000080fb004700de00bde8b700c5
:104c9800a12d20009140780000c8b30000c060003a
:104ca8000004e00003003a0010002000000f780024
:104cb800020037000000eb00000f78001e007800ab
:104cc8000080fa00000006000200fa00004f780099
:104cd8000080fa00000006000000fa000080fa00d8
:104ce800000006000800fa00881f78004000200035
:104cf800401988002c83a9006000b800008fbe000e
:104d0800050037000200200003f823001e00be0043
:104d180001f70700008fbe0002002000a34724000f
:104d28001e00be0059f707000000e000f5ff35003f
:104d38002023a8006000b800008fbe0005003700df
:104d48000200200003f823001e00be00f2f6070050
:104d5800008fbe0002002000a34724001e00be00f2
:104d68004af707000000e000f5ff35002023a900fe
:104d78006000b800008fbe00050037000200200068
:104d880003f823001e00be00e3f60700008fbe00f4
:104d980002002000a34724001e00be003bf70700c6
:104da8000000e000f5ff350020c3bf00614060004f
:104db8000004e000fcff3200081880006140b900e0
:104dc80034f7070020079800310798000800e00032
:104dd80007003d0002002000037824002e00900008
:104de800be009000ccf60700200798003107980015
:104df8002e009000be009000008fbe001e00be0076
:104e080032332300330524004df70700008fbe001e
:104e180002002000034824001e00be007cf70700a3
:104e2800008fbe001e00be00d2cc2c00c3f02300b1
:104e3800b8f60700008fbe0002002000836424003b
:104e48001e00be003ef70700008fbe001e00be0019
:104e5800b1f7070000488800004880007000b300e0
:104e680000488800100020004f0478000080fa00f5
:104e7800000006000400fa00004880004300de003d
:104e8800100798009e00900000002100008060003c
:104e98000000e00006003a003e4090007f406000bd
:104ea80030479800b0c2b30002e9b7000c003700e1
:104eb800be40900000ceb30000c07000304798009c
:104ec800d0c2b30002e9b7001e0090000080ea00db
:104ed800100798001e0090000000e80010079800d6
:104ee8001e0090006a00b9004400de001007980018
:104ef80040c0b300004f7800120037009e81fb00cd
:104f08001e009000a2002000110009000280d800b5
:104f18008000fd00ef40600000c3b30080c0700057
:104f28002090200000804100014878001e00900079
:104f3800a2002000110009000280d8001007980084
:104f48001e4fe9001e04e000ecff3a0031902000fb
:104f58009140780000c3b30080cf500009003a00a8
:104f680000c2b30003e9b7004190200091407800e7
:104f780000c3b30080cf500002003a0000c2b30063
:104f880004e9b70006c9bf0007e9b700e0c2b300eb
:104f980006e9b70080cfb30008e9b70030c4b30012
:104fa80009e9b700d0c0b3000ae9b7000040eb0038
:104fb8000be9b7000080fa00000006000000fa00c4
:104fc8000300070068f807003cfd0700fdff3700f5
:104fd8000000fa000080eb00601988002cf8070038
:104fe80002fd07000080fa00000006000000fa0039
:104ff8000080fa00000006000000fa000080fa00b5
:10500800000006000000fa000080fa000000060018
:105018000000fa000080fa00000006000000fa0014
:105028000080fa00000006000000fa000080fa0084
:10503800000006000000fa00d1c1b30010c0b300a0
:1050480043fc0700a287200003c4b3008040eb00a4
:1050580010c0b30087fc0700804888000080fa0071
:10506800000006000000fa009444a80080702000a8
:10507800a0488800a04880000000e900a0488800f7
:10508800a04880000000e000faff3a009444a9001c
:085098000080fa000000060090
:020000040000fa
:1050a00010090000040000000200000000000000e1
:1050b00000000000ba0800004600000000000000e8
:1050c0003a08000080000000000000001409000001
:1050d00002000000000000000009000010000000b5
:1050e00000000000000a00001000000000000000a6
:1050f000000800003a00000000000000000000006e
:020000040000fa
:045100000000fe00ad
:00000001FF
